:020000040800F2
:10000000000004205D0D0008410D0008430D0008AC
:10001000450D0008470D0008490D000800000000CC
:100020000000000000000000000000004B0D000870
:100030004D0D0008000000004F0D0008510D000894
:10004000AD0D0008AD0D0008AD0D0008AD0D0008A8
:10005000AD0D0008AD0D0008AD0D0008AD0D000898
:10006000AD0D0008AD0D0008AD0D0008AD0D000888
:10007000AD0D0008AD0D0008AD0D0008AD0D000878
:10008000AD0D0008AD0D0008AD0D0008AD0D000868
:10009000AD0D0008AD0D0008AD0D0008AD0D000858
:1000A000AD0D0008AD0D0008AD0D0008AD0D000848
:1000B000AD0D0008AD0D0008AD0D0008AD0D000838
:1000C000AD0D0008AD0D0008AD0D0008AD0D000828
:1000D000AD0D0008AD0D0008AD0D0008AD0D000818
:1000E000AD0D0008AD0D0008AD0D0008AD0D000808
:1000F000AD0D0008AD0D0008AD0D0008AD0D0008F8
:10010000AD0D0008AD0D0008AD0D0008AD0D0008E7
:10011000AD0D0008AD0D0008AD0D0008AD0D0008D7
:10012000AD0D0008AD0D0008AD0D0008AD0D0008C7
:10013000AD0D0008000000000000000000000000FD
:10014000000000000000000000000000AD0D0008ED
:10015000AD0D0008AD0D0008AD0D0008AD0D000897
:10016000AD0D0008AD0D0008AD0D0008AD0D000887
:10017000AD0D0008AD0D00080000000000000000FB
:10018000AD0D0008AD0D0008AD0D0008AD0D000867
:10019000AD0D0008AD0D000800000000AD0D000819
:1001A000000000000000000000000000AD0D00088D
:1001B000AD0D0008AD0D00080000000000000000BB
:1001C000000000000000000000000000000000002F
:1001D000000000000000000000000000AD0D00085D
:1002000053B94AB9002908BF00281CBF4FF0FF317D
:100210004FF0FF3000F00CB8ADF1080C6DE904CEE2
:1002200002F046FCDDF804E0DDE9022304B070478B
:10023000704700BF00000000000000000000000048
:1002400002780B78012A28BF9A4240F0D8806DE9E5
:10025000044540EA0104CDE902676FF0000C4FEA63
:1002600044721AB380EA010414F0070F6BD100F056
:10027000070420F0070004F0030521F007014FEA0E
:10028000C505F0E8042314F0040FF1E804670CFA44
:1002900005F462EA040266EA04060BD063EA04038A
:1002A000624667EA0407664604E000BFF0E80423FC
:1002B000F1E8046782FA4CF582EA0604A4FA8CF4A9
:1002C0006CBB83FA4CF583EA0705A5FA8CF595B962
:1002D00050E9022351E9026782FA4CF582EA0604EA
:1002E000A4FA8CF483FA4CF583EA0705A5FA8CF599
:1002F0002543DBD09CB92DBAB5FA85F424F0070468
:1003000027FA04F1DDE9026723FA04F303F0FF00A2
:1003100001F0FF01FDE80445A0EB0100704724BA9D
:10032000B4FA84F424F0070426FA04F1DDE9026744
:1003300022FA04F202F0FF0001F0FF01FDE804459B
:10034000A0EB0100704714F0030F3CD110F0030440
:1003500028D150F8082B51F8083B82FA4CF582EA74
:100360000305A5FA8CF55DB950F8042C51F8043C4E
:1003700082FA4CF582EA0305A5FA8CF5002DE8D047
:100380002DBAB5FA85F424F0070423FA04F122FA11
:1003900004F202F0FF0001F0FF01FDE80445A0EBCC
:1003A000010070474FEAC40420F0030050F8082B06
:1003B00021F0030151F8083B0CFA04F462EA04024C
:1003C00063EA0403C9E710F003041DD0A1EB0401A4
:1003D00020F00300E40750F8042B06D012D28B78EB
:1003E0005FFAA2F4E41A06D12BB1CB785FFAB2F42B
:1003F000E41A00D133B920465DF8104B7047A2EBE8
:100400000300704701F1040150F8042BCC0721F0E0
:10041000030151F8043B48D824D222F07F4482FAE9
:100420004CF594EA1325A5FA8CF50AD165B951F873
:10043000043B84EA0204B4EB036F0ED150F8042BA2
:10044000EBE74FEA132355E035F07F454DD10878AF
:10045000FDE80445C0F1000070474FEA126203F066
:10046000FF0347E002EA1C4482FA4CF594EA134584
:10047000A5FA8CF50AD165B951F8043B84EA020467
:10048000B4EB034F0CD150F8042BEBE74FEA1343C6
:1004900030E015EA1C4528D10B884FEA124229E0CA
:1004A0004FEA124203EA1C4324E002F0FF0482FAFE
:1004B0004CF594EA1365A5FA8CF50AD165B951F8A3
:1004C000043B84EA0204B4EB032F09D150F8042B57
:1004D000EBE74FEA13630DE015F0FF0F05D10B6852
:1004E0004FEA122223F07F4304E04FF00000FDE8C2
:1004F0000445704712BA1BBA82FA4CF482EA03042C
:10050000A4FA8CF5B5FA85F402FA04F203FA04F3BE
:100510004FEA1260FDE80445A0EB1360704700BF8E
:1005200000000000000000000000000000000000CB
:1005300000000000000000000000000000000000BB
:1005400030B490F800F020F007016FF0000C10F0CC
:10055000070491F820F040F048804FF000046FF05D
:100560000700D1E9002391F840F000F1080082FA79
:100570004CF2A4FA8CF283FA4CF3A2FA8CF34BBB44
:10058000D1E9022382FA4CF200F10800A4FA8CF2BD
:1005900083FA4CF3A2FA8CF3E3B9D1E9042382FA8B
:1005A0004CF200F10800A4FA8CF283FA4CF3A2FAA0
:1005B0008CF37BB9D1E9062301F1200182FA4CF2D8
:1005C00000F10800A4FA8CF283FA4CF3A2FA8CF33F
:1005D000002BC6D0002A04BF04301A4612BAB2FA61
:1005E00082F200EBD20030BC7047D1E9002304F066
:1005F0000305C4F100004FEAC50514F0040F91F89B
:1006000040F00CFA05F562EA05021CBF63EA050337
:1006100062464FF00004AAE70348044B834202D02D
:10062000034B03B1184770475401002054010020C8
:10063000000000000548064B1B1AD90F01EBA3016F
:10064000491002D0034B03B11847704754010020F2
:10065000540100200000000010B5064C237843B977
:10066000FFF7DAFF044B13B10448AFF30080012316
:10067000237010BD5401002000000000403100082C
:1006800008B5054B1BB105490548AFF30080BDE82F
:100690000840FFF7CFBF00BF000000005801002056
:1006A0004031000838B505460C460A23012211499D
:1006B00002F00DF988B9104B19880E4B5B5C0D2BBD
:1006C0000CD10C4D2846A0474FF4806200212846EB
:1006D00002F016FC084B00221A8038BD0A230122C2
:1006E00004480144284602F08FF8034A1388013376
:1006F0001380F2E7740100207001002038B5054630
:100700000C460846FFF71CFF0A2382B22146284602
:1007100002F07AF838BD000008B50A230222024927
:1007200002F072F808BD00BF5831000810B5044649
:10073000FFF7E4FF2046FFF7EFFF10BD70B110B5E3
:10074000044602F031FB00E001342378064AD25C13
:1007500012F0040FF8D10D2B03D110BD4FF0FF3074
:1007600070474FF0FF30F8E7B931000810B5044684
:100770000D49FFF765FD30B108220C49204602F013
:100780000DFC28B110BD0A490A48FFF7CFFFF9E771
:1007900004F10800FFF7D2FFB0F5805FF2D280B21B
:1007A000054B1880EEE700BF5C310008943100086B
:1007B00064310008780500207405002008B502495E
:1007C0000248FFF76FFF08BD6D070008780500209D
:1007D00030B585B00024009401940294039400F095
:1007E0004BFD01238DF800308DF8014001941F224C
:1007F0008DF8082087228DF809208DF80A408DF8A1
:100800000B408DF80C308DF80D308DF80E408DF8C2
:100810000F40684600F04EFD042000F03BFD05B09F
:1008200030BD00002DE9F0438BB005AD00240594E8
:100830000694079408940994314B1A6B42F0800295
:100840001A631A6B02F080020192019A1A6B42F04D
:1008500004021A631A6B02F004020292029A1A6BE3
:1008600042F001021A631A6B02F001020392039A2A
:100870001A6B42F002021A631B6B03F0020304932B
:10088000049BDFF8808022460C21404600F0C8FE21
:100890001D4F22464FF40161384600F0C1FE0C2383
:1008A000059301260696079408942946404600F0D1
:1008B000BFFDEE230593069407962946134800F0E2
:1008C000B7FD4FF40069CDF814900696079608948A
:1008D0002946384600F0ACFDCDF8149006940794F4
:1008E0002946404600F0A4FD102305930696079480
:1008F00008942946384600F09BFD0BB0BDE8F08314
:10090000003802400008024000040240000002409B
:1009100072B6FEE708B51148114B0360114B4360F6
:10092000002383600122C260036143618361C3616C
:10093000036200F07BFE50B90021084800F0DAFEA7
:1009400038B90021054800F002FF20B908BDFFF7C3
:10095000DFFFFFF7DDFFFFF7DBFF00BF0006002032
:10096000005400405B3D300008B50B480B4B036062
:100970004FF4E133436000238360C36003610C22C2
:1009800042618361C3610362436202F05FF800B9B0
:1009900008BDFFF7BDFF00BF780500200010014033
:1009A00000B585B00023009301930293039313488D
:1009B000134A0260436083600361836180F82030E2
:1009C000C362104A8262C3600122C26180F8303083
:1009D000426100F0CBFA68B90A2300930123019326
:1009E000002302936946054800F0ECFA20B905B0EF
:1009F0005DF804FBFFF78CFFFFF78AFF6806002015
:100A0000002001400100000F00B583B000230093D7
:100A100001930A480A4B036000F078FC50B90022A9
:100A2000009201926946054800F0D1FC20B903B05C
:100A30005DF804FBFFF76CFFFFF76AFF5406002028
:100A40000074004010B594B008AC3022002120465C
:100A500002F056FA00230393049305930693079339
:100A6000184A116C41F080511164126C02F08052EE
:100A70000192019A14490A6822F4404242F48042E9
:100A80000A600A6802F440420292029A0222089224
:100A900001220B9210220C920E93204600F082FE4F
:100AA00060B90F23039300210491059106910791EA
:100AB00003A801F0E5F818B914B010BDFFF728FF3E
:100AC000FFF726FF003802400070004008B5FFF72E
:100AD0007FFE00F093F9FFF7B5FFFFF7A3FEFFF7E6
:100AE00019FFFFF741FFFFF75BFFFFF78DFF0021C5
:100AF0000E4800F01DFC02E00D4B00221A80FFF7AB
:100B00005DFE0B4C23889BB200221146074800F083
:100B100045FC23889BB240F6FE729342ECD82388B2
:100B20009BB201339BB22380E9E700BF540600204B
:100B30007405002082B00A4B1A6C42F080521A648D
:100B40001A6C02F080520092009A5A6C42F4804271
:100B50005A645B6C03F480430193019B02B07047BD
:100B60000038024000B589B0002303930493059335
:100B700006930793026803F1804303F590339A428A
:100B800002D009B05DF804FB03F58C335A6C42F4D3
:100B900080725A645A6C02F480720192019A1A6B44
:100BA00042F004021A631B6B03F004030293029BDE
:100BB000012303930323049303A9024800F038FCA4
:100BC000DFE700BF0008024000B589B000230393AF
:100BD00004930593069307930268114B9A4202D03F
:100BE00009B05DF804FB03F5E2331A6C42F00052E1
:100BF0001A641A6C02F000520192019A1A6B42F0C8
:100C000001021A631B6B03F001030293029B102382
:100C100003930323049303A9024800F009FCDFE7D0
:100C2000007400400000024010B5A8B00446002146
:100C300023912491259126912791802203A802F0E7
:100C40005FF92268184B9A4201D028B010BD4FF4CA
:100C50008043039303A801F0EFF808BB134C236B08
:100C600043F002032363236B03F002030193019B10
:100C7000C023239312232493002325930323269335
:100C80000423279323A90A4800F0D2FB236C43F4E2
:100C900000132364236C03F400130293029BD4E734
:100CA000FFF736FEDAE700BF00540040003802408C
:100CB0000004024010B5A8B00446002123912491FD
:100CC000259126912791802203A802F019F9226824
:100CD000184B9A4201D028B010BD4023039303A8BB
:100CE00001F0AAF810BB144B5A6C42F010025A647F
:100CF0005A6C02F010020192019A1A6B42F0010242
:100D00001A631B6B03F001030293029B4FF4C06351
:100D1000239302232493002325930323269307235D
:100D2000279323A9054800F083FBD4E7FFF7F0FDE4
:100D3000D9E700BF00100140003802400000024027
:100D4000FEE7FEE7FEE7FEE7FEE770477047704705
:100D500008B500F05FF808BD70470000DFF834D038
:100D6000FFF7FAFF0C480D490D4A002302E0D45862
:100D7000C4500433C4188C42F9D30A4A0A4C0023E5
:100D800001E013600432A242FBD302F049F9FFF7FD
:100D90009DFE704700000420000000205401002048
:100DA000D03200085401002084090020FEE7000032
:100DB00010B504460E4B1A784FF47A73B3FBF2F376
:100DC0000C4A1068B0FBF3F000F042FA68B90F2C3F
:100DD00001D901200AE0002221464FF0FF3000F047
:100DE00027FA054B1C60002000E0012010BD00BF69
:100DF00004000020000000200800002008B50320A7
:100E000000F004FA0F20FFF7D3FFFFF793FE002056
:100E100008BD0000034A1168034B1B780B441360A4
:100E2000704700BFB006002004000020014B186886
:100E3000704700BFB00600204A4B5A6822F4403287
:100E40005A605A6841680A435A600268536823F43A
:100E50008073536002685368016943EA0123536059
:100E60000268536823F040735360026853688168D6
:100E70000B4353600268936823F400639360026835
:100E80009368C1680B439360826A374B9A4257D08C
:100E90000268936823F07063936002689368816AC4
:100EA0000B4393600268936823F040539360026899
:100EB0009368C16A0B4393600268936823F002034E
:100EC000936002689368816943EA4103936090F8F4
:100ED0002030002B3FD00268536843F40063536016
:100EE0000268536823F46043536001684B68426AA8
:100EF000013A43EA42334B600268D36A23F4700339
:100F0000D3620168CB6AC269013A43EA0253CB62F9
:100F10000268936823F4007393600268936890F802
:100F2000301043EA412393600268936823F480639E
:100F3000936002689368416943EA81239360704734
:100F40000268936823F0706393600268936823F0EB
:100F500040539360B0E70268536823F40063536022
:100F6000CAE700BF002301400100000F28B310B5FD
:100F70000446036C43B1236C13F0100F0BD0012017
:100F8000002384F83C3010BDFFF7ECFD00236364C0
:100F900084F83C30EFE7226C094B134043F0020326
:100FA00023642046FFF748FF00206064236C23F091
:100FB000030343F001032364E2E70120704700BF0D
:100FC000FDEEFFFF30B482B00022019290F83C2089
:100FD000012A00F0DC800346012280F83C200A68E8
:100FE000B2F1004F18BF092A22D90468E06892B212
:100FF00002EB42021E3A4FF0070C0CFA02F220EA12
:101000000202E2600A68634882420AD01D68E8680A
:101010008C6892B202EB42021E3A94402043E86090
:101020001CE01868C2688C6842EA0462C26015E07D
:101030000468206992B202EB42024FF0070C0CFAEE
:1010400002F220EA020222611C6820690A8802EB8F
:1010500042028D6805FA02F2024322614A68062ABA
:1010600029D81C68606B02EB8202053A4FF01F0C16
:101070000CFA02F220EA020262631C68606B4A68A2
:1010800002EB8202053AB1F800C00CFA02F2024308
:1010900062631868404A90423DD018683E4A9042C8
:1010A00043D018683C4A90424CD0002083F83C0062
:1010B00002B030BC70470C2A16D81D68286B02EBB2
:1010C0008202233A1F2404FA02F220EA02022A636F
:1010D0001D68286B4A6802EB8202233A0C8804FAE6
:1010E00002F202432A63D4E71D68E86A02EB820237
:1010F000413A1F2404FA02F220EA0202EA621D6861
:10110000E86A4A6802EB8202413A0C8804FA02F269
:101110000243EA62BDE70A68B2F1004FBDD11F4841
:10112000426822F440024260B7E70A68122AB8D146
:101130001A4A506820F400005060506840F4800063
:101140005060AEE70A681348112A18BF8242ACD13A
:10115000124A506820F480005060506840F400004B
:10116000506009680B4A91429FD10D4A12680D499F
:10117000A1FB0212920C02EB82025200019202E0E9
:10118000019A013A0192019A002AF9D18DE70220D1
:101190008EE700BF12000010002001400023014034
:1011A0000000002083DE1B43002804DB0901C9B2D4
:1011B000044B1954704700F00F000901C9B2024BEB
:1011C0001954704700E400E014ED00E000B500F0B1
:1011D0000700C0F1070CBCF1040F28BF4FF0040C4E
:1011E000031D062B0FD9C31E4FF0FF3E0EFA0CF065
:1011F00021EA000199400EFA03FE22EA0E0241EABA
:1012000002005DF804FB0023EEE700000649CB680E
:1012100023F4E0631B041B0C000200F4E0600343B2
:10122000024A1A43CA60704700ED00E00000FA0568
:1012300010B50446054BD868C0F30220FFF7C6FF7F
:1012400001462046FFF7B0FF10BD00BF00ED00E0F3
:101250000138B0F1807F0BD24FF0E0235861054A8E
:10126000F02182F823100020986107221A6170474C
:101270000120704700ED00E0BFF35F8F044B5A6A16
:1012800022F480325A620022C3F89420704700BFD3
:1012900000ED00E040F00100054BC3F894005A6AED
:1012A00042F480325A62BFF34F8FBFF36F8F7047A3
:1012B00000ED00E04378144AC2F89830D2F8A0302C
:1012C00023F00103C2F8A0304368C2F89C30017BD0
:1012D000C37A1B0643EA0173817A43EAC143417B27
:1012E00043EA8143817B43EA4143C17B43EA0143B3
:1012F000417A43EA0123017A43EA410301780B432F
:10130000C2F8A030704700BF00ED00E070B110B52A
:101310000446037933B102232371002020610123A5
:10132000237110BD4371FFF74FFCF4E701207047B4
:1013300080B303464279012A2ED010B401224271B3
:10134000022018711C68206801F0100C02FA0CF2DF
:101350000243226081B919680A6802F03C023C2A03
:1013600005D001221A710020587110BC70474A68DC
:1013700042F001024A60F4E71868016801F4701154
:101380003C2202FA0CF29142EBD1426842F0020296
:101390004260E6E7012070470220704710B483B036
:1013A0000024019488B10068019049B901990A4468
:1013B00008320192019A1360002003B010BC7047FC
:1013C00001990A4414320192F4E70120F5E700295B
:1013D00018BF002828D003464079012826D010B530
:1013E0004FF0010E83F805E0022018711C68206898
:1013F00002F0100240F6FE7C0CFA02FC20EA0C0C13
:10140000086849680143914041EA0C0121601C6869
:101410002168C02000FA02F221EA0202226083F869
:1014200004E00020587110BD012070470220704771
:1014300000230F2B00F2EA8030B583B068E08568A6
:101440004FEA430E032404FA0EF425EA0405CC689F
:1014500004FA0EF42C438460446824EA02044A68C7
:10146000C2F300129A40224342605FE0DC08083475
:1014700050F8242003F00705AD004FF00F0E0EFAD0
:1014800005FE22EA0E0E0A69AA4042EA0E0240F860
:1014900024205FE0072200E0002202FA0EF22A4335
:1014A00002345B4D45F824205A4A94686FEA0C02D6
:1014B00024EA0C05D1F804E01EF4801F01D04CEAA8
:1014C0000405544CA560E46802EA0405D1F804E080
:1014D0001EF4001F01D04CEA04054E4CE560646820
:1014E00002EA0405D1F804E01EF4003F01D04CEA02
:1014F0000405484C6560246822404D6815F4803F1F
:1015000001D04CEA0402434C226001330F2B7BD8FC
:1015100001229A400C6804EA020C32EA0404F4D175
:101520004C6804F00304013C012C88D94A6802F09D
:101530000302032A09D0C4685D000322AA4024EAFA
:1015400002048A68AA402243C2604A6802F0030289
:10155000022A8BD004684FEA430E032202FA0EF2ED
:1015600024EA02044A6802F0030202FA0EF222435D
:1015700002604A6812F4403FC7D0274A546C44F4D2
:1015800080445464526C02F480420192019A9C0897
:10159000A51C1F4A52F8255003F0030E4FEA8E0E89
:1015A0000F2202FA0EF225EA02051C4A90423FF48D
:1015B00073AF02F5806290421AD002F580629042C9
:1015C00018D002F58062904216D002F580629042F7
:1015D00014D002F58062904212D002F580629042EF
:1015E00010D002F5806290423FF454AF082254E7D5
:1015F000012252E7022250E703224EE704224CE781
:1016000005224AE7062248E703B030BD704700BF15
:1016100000380140003C0140003802400000024018
:101620000AB18161704709048161704700285DD06B
:1016300010B5044690F84130002B46D0242384F89E
:1016400041302268136823F0010313606368226845
:1016500023F0706313612268936823F4004393605E
:10166000E368012B36D0A368226843F404439360F7
:10167000E368022B34D02268536823F4006353607C
:10168000226851681A4B0B4353602268D36823F4D5
:101690000043D360236962691343A169226843EA66
:1016A0000123D360E369216A22680B431360226837
:1016B000136843F00103136000206064202384F862
:1016C0004130206384F8420010BD80F84030FFF7BD
:1016D000ABFAB3E7A368226843F400439360C7E71B
:1016E0002268536843F400635360C9E701207047E0
:1016F00000800002034690F84120202A23D190F870
:101700004020012A21D0012280F84020242280F8A4
:1017100041200068026822F0010202601868026835
:1017200022F480520260186802680A430260196855
:101730000A6842F001020A60202283F8412000205A
:1017400083F840007047022070470220704703462C
:1017500090F84120202A21D190F84020012A1FD062
:10176000012280F84020242280F84120006802688D
:1017700022F0010202601868026822F4706242EAF4
:101780000122026019680A6842F001020A60202200
:1017900083F84120002083F8400070470220704702
:1017A00002207047002800F0FF8170B582B0044627
:1017B000036813F0010F29D0954B9B6803F00C03CD
:1017C000042B1AD0924B9B6803F00C03082B0FD00C
:1017D0006368B3F5803F40D0002B54D18C4B1A681E
:1017E00022F480321A601A6822F480221A6039E0EA
:1017F000874B5B6813F4800FEAD0854B1B6813F4AA
:10180000003F03D06368002B00F0D081236813F001
:10181000020F74D07E4B9B6813F00C0F5ED07C4B94
:101820009B6803F00C03082B53D0E368002B00F0F7
:101830008980774A136843F001031360FFF7F6FAD3
:101840000546734B1B6813F0020F72D1FFF7EEFAD7
:10185000401B0228F5D90320ADE16D4A136843F41B
:101860008033136063682BB3FFF7E0FA0546684BDB
:101870001B6813F4003FC9D1FFF7D8FA401B642856
:10188000F5D9032097E1B3F5A02F09D0604B1A6872
:1018900022F480321A601A6822F480221A60E1E78A
:1018A0005B4B1A6842F480221A601A6842F4803254
:1018B0001A60D7E7FFF7BAFA0546554B1B6813F4D1
:1018C000003FA3D0FFF7B2FA401B6428F5D90320EC
:1018D00071E14F4B5B6813F4800FA6D14C4B1B6832
:1018E00013F0020F03D0E368012B40F06181484AF6
:1018F000136823F0F803216943EAC10313602368E6
:1019000013F0080F46D0636983B3414A536F43F025
:1019100001035367FFF78AFA05463D4B5B6F13F0EF
:10192000020F37D1FFF782FA401B0228F5D90320B6
:1019300041E1374A136823F0F803216943EAC10300
:101940001360DCE7324A136823F001031360FFF7EA
:101950006DFA05462E4B1B6813F0020FCFD0FFF730
:1019600065FA401B0228F5D9032024E1284A536F69
:1019700023F001035367FFF759FA0546244B5B6FC9
:1019800013F0020F06D0FFF751FA401B0228F5D9D9
:10199000032010E1236813F0040F7DD01C4B1B6C57
:1019A00013F0805F1ED11A4B1A6C42F080521A64F9
:1019B0001B6C03F080530193019B0125154B1B68A1
:1019C00013F4807F10D0A368012B25D0002B3BD1CE
:1019D0000F4B1A6F22F001021A671A6F22F00402ED
:1019E0001A671EE00025E9E70A4A136843F480738A
:1019F0001360FFF71BFA0646064B1B6813F4807F43
:101A0000E1D1FFF713FA801B6428F5D90320D2E057
:101A100000380240007000406E4A136F43F001032B
:101A20001367A36833B3FFF701FA0646694B1B6FD0
:101A300013F0020F2FD1FFF7F9F9801B41F2883321
:101A40009842F3D90320B6E0052B09D0614B1A6FF9
:101A500022F001021A671A6F22F004021A67E0E707
:101A60005C4B1A6F42F004021A671A6F42F00102CF
:101A70001A67D6E7FFF7DAF90646564B1B6F13F0E5
:101A8000020F08D0FFF7D2F9801B41F28833984249
:101A9000F3D903208FE0FDB9A369002B00F08A8001
:101AA0004C4A926802F00C02082A58D0022B19D036
:101AB000484A136823F080731360FFF7B7F90446B0
:101AC000444B1B6813F0007F47D0FFF7AFF9001BB2
:101AD0000228F5D903206EE03E4A136C23F08053B0
:101AE0001364D9E73B4A136823F080731360FFF750
:101AF0009DF90546374B1B6813F0007F06D0FFF7B2
:101B000095F9401B0228F5D9032054E0E369226AC5
:101B10001343626A43EA8213A26A5208013A43EA13
:101B20000243E26A43EA026343F00053294A5360E6
:101B3000136843F080731360FFF778F90446254B70
:101B40001B6813F0007F06D1FFF770F9001B022815
:101B5000F5D903202FE000202DE000202BE01D4AC6
:101B60005268012B29D002F48003E1698B4226D10F
:101B700002F03F03216A8B4223D1616A47F6C073AA
:101B80001340B3EB811F1ED102F44031A36A5B08FE
:101B9000013BB1EB034F18D102F07062E36AB2EB84
:101BA000036F14D1002006E001207047012002E0FD
:101BB000012000E0002002B070BD0120FBE7012001
:101BC000F9E70120F7E70120F5E70120F3E701201D
:101BD000F1E700BF0038024008B5264B9B6803F0D0
:101BE0000C03042B41D0082B41D1224B5A6802F040
:101BF0003F025B6813F4800F12D01E4B5968C1F38B
:101C000088111D480023A1FB0001FEF7F9FA194BCA
:101C10005B68C3F3014301335B00B0FBF3F008BD25
:101C2000144B5868C0F388104FEA401CBCEB000C02
:101C30006EEB0E0E4FEA8E1343EA9C634FEA8C1153
:101C4000B1EB0C0163EB0E03DB0043EA5173C900F7
:101C500011EB000C43F10003990200234FEA8C20A2
:101C600041EA9C51FEF7CCFAD1E70348D7E7034895
:101C7000D5E700BF0038024040787D010024F40021
:101C8000002800F0A08070B50D460446524B1B683A
:101C900003F00F038B420BD24F4A136823F00F035C
:101CA0000B431360136803F00F038B4240F08D80E9
:101CB000236813F0020F17D013F0040F04D0474A23
:101CC000936843F4E0539360236813F0080F04D043
:101CD000424A936843F460439360404A936823F018
:101CE000F003A1680B439360236813F0010F31D018
:101CF0006368012B20D0022B25D0384A126812F0DD
:101D0000020F64D035498A6822F0030213438B60C6
:101D1000FFF78CF80646314B9B6803F00C036268B2
:101D2000B3EB820F16D0FFF781F8801B41F28833A6
:101D30009842F0D9032045E0284A126812F4003F87
:101D4000E0D101203EE0254A126812F0007FD9D18F
:101D5000012037E0204B1B6803F00F03AB420AD988
:101D60001D4A136823F00F032B431360136803F01D
:101D70000F03AB422DD1236813F0040F06D0174A8E
:101D8000936823F4E053E1680B439360236813F0F6
:101D9000080F07D0114A936823F46043216943EA8E
:101DA000C1039360FFF718FF0C4B9B68C3F3031349
:101DB0000B4AD35CD8400B4B18600B4B1868FEF7EE
:101DC000F7FF002070BD012070470120FAE70120D5
:101DD000F8E70120F6E700BF003C0240003802406F
:101DE000A83100080000002008000020014B1868FE
:101DF000704700BF0000002008B5FFF7F7FF044B55
:101E00009B68C3F38223034AD35CD84008BD00BF5C
:101E100000380240A031000808B5FFF7E7FF044B87
:101E20009B68C3F34233034AD35CD84008BD00BF6C
:101E300000380240A0310008F0B583B004460668BF
:101E400016F001060DD0AB4B9A6822F400029A609E
:101E50009A68C16A0A439A60C36A002B00F0238122
:101E60000026256815F4002511D0A24AD2F88C303E
:101E700023F44013616B0B43C2F88C30636BB3F5F2
:101E8000801F00F01281002B00F0118100252368D3
:101E900013F4801F0FD0974AD2F88C3023F44003FC
:101EA000A16B0B43C2F88C30A36BB3F5800F00F02D
:101EB000008103B90125236813F0200F40F0FB8057
:101EC000236813F0100F0CD08A4BD3F88C2022F02B
:101ED0008072C3F88C20D3F88C20216B0A43C3F89E
:101EE0008C20236813F4804F08D0824AD2F89030B7
:101EF00023F44033E16D0B43C2F89030236813F4B0
:101F0000004F08D07B4AD2F8903023F44023216E52
:101F10000B43C2F89030236813F4803F08D0754A11
:101F2000D2F8903023F44013616E0B43C2F8903026
:101F3000236813F0400F08D06E4AD2F8903023F097
:101F40000303E16B0B43C2F89030236813F0800F5A
:101F500008D0684AD2F8903023F00C03216C0B4370
:101F6000C2F89030236813F4807F08D0614AD2F819
:101F7000903023F03003616C0B43C2F8903023683B
:101F800013F4007F08D05B4AD2F8903023F0C003EE
:101F9000A16C0B43C2F89030236813F4806F08D013
:101FA000544AD2F8903023F44073E16C0B43C2F8EA
:101FB0009030236813F4006F08D04E4AD2F8903066
:101FC00023F44063216D0B43C2F89030236813F46F
:101FD000805F08D0474AD2F8903023F44053616DB7
:101FE0000B43C2F89030236813F4005F08D0414AD5
:101FF000D2F8903023F44043A16D0B43C2F89030E7
:10200000236813F4001F0DD03A4AD2F8903023F021
:102010000063616F0B43C2F89030636FB3F1006FE0
:1020200000F0B480236813F4802F08D0314AD2F82E
:10203000903023F04073E16E0B43C2F89030236878
:1020400013F4000F08D02B4AD2F8903023F08053BD
:10205000A16F0B43C2F89030236813F0806F08D053
:10206000244AD2F8903023F00053E16F0B43C2F8BA
:10207000903026B9236813F0007F00F0E4801D4AF9
:10208000136823F080631360FEF7D0FE0646194BF9
:102090001B6813F0006F7BD0FEF7C8FE801B64281E
:1020A000F5D90320D2E00126DBE60126EBE6012587
:1020B000EDE60126FDE60F4B1A6C42F080521A64E1
:1020C0001B6C03F080530193019B0B4A136843F48C
:1020D00080731360FEF7AAFE0746074B1B6813F4D4
:1020E000807F0BD1FEF7A2FEC01B6428F5D9032028
:1020F000ACE000BF0038024000700040854B1B6F11
:1021000013F4407315D0A26A02F440729A4210D0C0
:10211000804B1A6F22F44072196F41F480311967B5
:10212000196F21F4803119671A671B6F13F0010FC3
:1021300012D1A36A03F44072B2F5407F1DD0754AF4
:10214000936823F4F813936072490B6FA26AC2F389
:102150000B0213430B67B3E6FEF768FE07466D4BB1
:102160001B6F13F0020FE4D1FEF760FEC01B41F2BB
:1021700088339842F3D9032068E06648826822F4E5
:10218000F812654919400A438260DDE7012549E7F5
:10219000236813F0010F0ED0E36A63B95D4AD2F8E9
:1021A0008430616803F0706343EA8113A16843EAF5
:1021B0000173C2F88430236813F4002F03D0626BDC
:1021C000B2F5801F06D013F4801F19D0A36BB3F5AE
:1021D000800F15D14F4AD2F884106068E3681B065F
:1021E00043EA801301F0E0410B43C2F88430D2F897
:1021F0008C3023F01F03E16901390B43C2F88C30A6
:10220000236813F0007F0AD06268E3681B0643EA84
:102210008213A26843EA02733E4AC2F884303D4A00
:10222000136843F080631360FEF700FE0646394BE7
:102230001B6813F0006F06D1FEF7F8FD801B6428C1
:10224000F5D9032002E0012D02D0002003B0F0BD3B
:10225000304A136823F080531360FEF7E7FD05460C
:102260002C4B1B6813F0005F06D0FEF7DFFD401B10
:102270006428F5D90320E9E7236813F4002F01D07F
:10228000626B22B113F4801F18D0A36BB3B9214A3B
:10229000D2F88830216903F4403343EA811361693D
:1022A00043EA0163C2F88830D2F88C3023F4F85343
:1022B000216A013943EA0123C2F88C30236813F400
:1022C000001F03D0636FB3F1006F13D0114A13687E
:1022D00043F080531360FEF7A9FD04460D4B1B68C5
:1022E00013F0005F14D1FEF7A1FD001B6428F5D99F
:1022F0000320ABE70749D1F888202069A3691B04B4
:1023000043EA801302F070621343C1F88830DDE7BE
:1023100000209BE700380240FFFCFF0F026852E8F4
:10232000003F23F4907342E800310029F6D102689F
:1023300002F1080353E8003F23F00103083242E8AA
:1023400000310029F3D1036E012B06D02023C0F801
:1023500080300023036683667047026852E8003FBE
:1023600023F0100342E800310029F6D1EEE7000027
:1023700010B5044683680269134342691343C26976
:10238000134301680868914A02401A430A602268B0
:10239000536823F44053E1680B435360A269236AF6
:1023A0001A4321688B6823F4306313438B602368DE
:1023B000874A934218D0874A934228D0864A93424C
:1023C0004FD0864A93425ED0854A93426DD0854A6B
:1023D00093427FD0844A934200F09180834A934293
:1023E00000F0A280102329E0814BD3F8903003F055
:1023F0000303032B09D8DFE803F00204AB06012333
:102400001CE004231AE0082318E0102316E0784BA0
:10241000D3F8903003F00C030C2B0ED8DFE803F058
:10242000070D0D0D090D0D0D9A0D0D0D0B0000235F
:1024300004E0042302E0082300E01023E069B0F583
:10244000004F00F0B980082B00F21A81DFE813F08A
:10245000F6000901F40018010C0118011801180117
:102460000F01634BD3F8903003F03003202B73D06F
:1024700005D8002B72D0102B72D10423DEE7302B4D
:1024800070D10823DAE75A4BD3F8903003F0C00339
:10249000802B69D005D8002B68D0402B68D104234D
:1024A000CCE7C02B66D10823C8E7514BD3F8903056
:1024B00003F44073B3F5007F5ED006D8002B5DD0E7
:1024C000B3F5807F5CD10423B8E7B3F5407F59D1E1
:1024D0000823B3E7464BD3F8903003F44063B3F5D9
:1024E000006F51D006D8002B50D0B3F5806F4FD17C
:1024F0000423A3E7B3F5406F4CD108239EE73C4B80
:10250000D3F8903003F44053B3F5005F44D006D8BD
:10251000002B43D0B3F5805F42D104238EE7B3F59F
:10252000405F3FD1082389E7314BD3F8903003F463
:102530004043B3F5004F37D005D8BBB3B3F5804F58
:1025400036D104237AE7B3F5404F33D1082375E73A
:10255000022373E7022371E702236FE700236DE78D
:1025600010236BE7102369E7022367E7002365E781
:10257000102363E7102361E702235FE700235DE791
:1025800010235BE7102359E7022357E7012355E7A0
:10259000102353E7102351E702234FE700234DE7B1
:1025A00010234BE7102349E7022347E7002345E7C1
:1025B000102343E7102341E7082B5BD8DFE803F043
:1025C0001A343A5A375A5A5A1E0000BFF369FFEFBD
:1025D000001001400044004000480040004C004012
:1025E000005000400014014000780040007C004092
:1025F00000380240FFF700FC00283DD06268530815
:1026000003EB4003B3FBF2F3A3F110014FF6EF72BB
:10261000914233D89AB222F00F02C3F3420313431C
:102620002268D36000202CE0FFF7F6FBE4E7FFF719
:10263000D3FAE1E71748E1E7164802E0FFF7DCFBD1
:1026400018B3636800EB5300B0FBF3F0A0F1100285
:102650004FF6EF739A421AD8236880B2D8600020F0
:102660000FE0FFF7D9FBEBE7FFF7B6FAE8E74FF427
:102670000040E6E7012004E0002002E0012000E045
:1026800001200023A366E36610BD0020F9E70120C6
:10269000F7E700BF0024F400436A13F0080F06D0E8
:1026A0000268536823F40043416B0B435360436A51
:1026B00013F0010F06D00268536823F40033816AD7
:1026C0000B435360436A13F0020F06D0026853684D
:1026D00023F48033C16A0B435360436A13F0040F41
:1026E00006D00268536823F48023016B0B435360C8
:1026F000436A13F0100F06D00268936823F48053E6
:10270000816B0B439360436A13F0200F06D002687D
:10271000936823F40053C16B0B439360436A13F037
:10272000400F0AD00268536823F48013016C0B43F6
:102730005360036CB3F5801F0BD0436A13F0800F16
:1027400006D00268536823F40023816C0B43536066
:1027500070470268536823F4C003416C0B43536015
:10276000EBE72DE9F84305460E4617469946DDF896
:1027700020802B68DC6936EA04040CBF01240024A5
:10278000BC423AD1B8F1FF3FF3D0FEF74FFBA0EBCC
:102790000900404534D8B8F1000F33D02B681A68CF
:1027A00012F0040FE5D0B6F1400218BF0122802ECE
:1027B000DFD0002ADDD0DA6912F0080F11D1DA6912
:1027C00012F4006FD5D04FF400621A622846FFF76A
:1027D000A5FD2023C5F88430002385F87830032038
:1027E0000CE008241C622846FFF798FDC5F88440D9
:1027F000002385F87830012000E00020BDE8F88350
:102800000320FBE70320F9E72DE9F04182B01E46E3
:10281000C36F202B57D104460D469046002A18BF9F
:10282000002901D101204FE00023C0F8843021238A
:10283000C367FEF7FBFA0746A4F85080A4F852805D
:10284000A368B3F5805F02D04FF0000815E023695C
:102850003BB34FF0000810E02023E367032033E090
:1028600038F8023B2268C3F308039362B4F852209D
:1028700092B2013A92B2A4F85220B4F852309BB20C
:1028800093B100963B46002280212046FFF769FF66
:102890000028E1D1002DE3D015F8012B23689A62BE
:1028A000E4E7A8460025E8E700963B4600224021E1
:1028B0002046FFF756FF10B92023E36704E02023EA
:1028C000E367032000E0022002B0BDE8F0812DE9BB
:1028D000F04383B01E46D0F88030202B7ED10446D2
:1028E0000D469046002A18BF002901D1012076E04C
:1028F0000023C0F884302222C0F880200366FEF74F
:1029000095FA0746A4F85880A4F85A80A368B3F54E
:10291000805F06D0A3B9226972B9FF22A4F85C20B7
:1029200014E0226922B940F2FF12A4F85C200DE005
:10293000FF22A4F85C2009E07F22A4F85C2005E0D7
:10294000B3F1805F0AD00022A4F85C20B4F85C8068
:10295000B3F5805F0CD04FF0000920E022691AB96E
:102960007F22A4F85C20F1E73F22A4F85C20EDE789
:1029700023695BB34FF0000911E02023C4F88030D5
:1029800003202CE023685B6A08EA030329F8023B72
:10299000B4F85A2092B2013A92B2A4F85A20B4F88C
:1029A0005A309BB2ABB100963B4600222021204614
:1029B000FFF7D7FE0028E0D1002DE3D023685A6A44
:1029C0005FFA88F3134005F8013BE1E7A9460025CB
:1029D000E5E72023C4F88030002000E0022003B0A7
:1029E000BDE8F08310B582B004460023C0F88430FF
:1029F000FEF71CFA23681B6813F0080F0AD1202386
:102A0000E367C4F8803000202066606684F87800B0
:102A100002B010BD6FF07E430093034600224FF4D6
:102A200000112046FFF79DFE0028E8D0226852E8FA
:102A3000003F23F0800342E800310029F6D1202333
:102A4000E367002384F878300320E1E768B310B52A
:102A50000446C36F03B32423E3672268136823F09B
:102A600001031360636AE3B92046FFF781FC012884
:102A700011D02268536823F490435360226893680E
:102A800023F02A0393602268136843F00103136064
:102A90002046FFF7A7FF10BD80F87830FEF70AF94F
:102AA000D9E72046FFF7F8FDDEE701207047000078
:102AB0002DE9F047089D0F4604468C46002B48D16F
:102AC0008A42164661D9B2FA82F34BB1C3F12002B1
:102AD00001FA03FC20FA02F29E4042EA0C0C9C40F0
:102AE0004FEA164EB7B2BCFBFEF1220C0EFB11CC26
:102AF00042EA0C4201FB07F0904209D9B21801F1F9
:102B0000FF3C80F0EE80904240F2EB80023932448C
:102B1000121AA4B2B2FBFEF00EFB102244EA0244E9
:102B200000FB07F7A74209D9341900F1FF3280F002
:102B3000DA80A74240F2D7803444023840EA0140AC
:102B4000E41B00211DB1DC400023C5E90043BDE8C2
:102B5000F0878B4206D90DB1C5E900010021084676
:102B6000BDE8F087B3FA83F1002948D1BB4202D314
:102B7000824200F20781841A67EB03020120944627
:102B8000002DE4D0C5E9004CE1E7002A00F0928076
:102B9000B2FA82F3002B40F0A8808A1A4FEA164E50
:102BA0001FFA86FC0121200CB2FBFEF70EFB172258
:102BB00040EA02420CFB07F0904207D9B21807F135
:102BC000FF3802D2904200F2E2804746121AA4B2C5
:102BD000B2FBFEF00EFB102244EA02440CFB00FCA8
:102BE000A44507D9341900F1FF3202D2A44500F2FE
:102BF000CB801046A4EB0C0440EA0740A2E7C1F1E9
:102C000020068B4022FA06FC4CEA030C07FA01F47A
:102C100020FA06F3F7404FEA1C49234300FA01F873
:102C20001FFA8CFEB7FBF9F01C0C09FB107744EA85
:102C3000074400FB0EF7A74202FA01F20AD91CEB87
:102C4000040400F1FF3A80F09B80A74240F2988094
:102C500002386444E41B9FB2B4FBF9F309FB13444C
:102C600047EA044403FB0EFEA64509D91CEB040405
:102C700003F1FF3780F08280A6457FD9023B644490
:102C800043EA0040A4EB0E04A0FB02E7BC427346FB
:102C9000B94663D360D05DB1B8EB030264EB0904BD
:102CA00004FA06F622FA01F31E43CC40C5E900649B
:102CB00000214CE76208480842EAC1710B0C43EA64
:102CC00000438AB242EA0342B3FBF6F1E407B4469A
:102CD0003746B6461F23B0FBF6F0D21B41EA00414F
:102CE00061E7614614E7104628E7C3F1200120FAA6
:102CF00001F29E4027FA01F19F403A434FEA164EF7
:102D00001FFA86FCB1FBFEF70EFB1710110C41EA0F
:102D1000004107FB0CF8884504FA03F43AD971180E
:102D200007F1FF3001D288451FD8A1EB0801B1FBA4
:102D3000FEF808FB0CF70EFB181192B242EA0142B2
:102D4000BA422FD2B21808F1FF31C6D2BA42C4D269
:102D5000A8F102013244C0E7F0459CD2BEEB020369
:102D600067EB0C070138B94695E7A6EB0808414424
:102D7000B81EB1FBFEF808FB0CF7DCE73B467FE72B
:102D8000504667E70846FBE63444023832E7023F24
:102D900032441BE7A1EB08013846B1FBFEF808FB03
:102DA0000CF7C8E7414698E70A22002100F09CB8DA
:102DB000242B2DE9F84F43D8012B41D080464948B8
:102DC0001F468E4675461EF801BB10F80B4014F0E6
:102DD0000804F7D1BBF12D0F6FD0BBF12B0F08BF4B
:102DE0009EF800B06FF0004908BF05F1020E73BBFA
:102DF000BBF1300F4BD00A273B460025B9FBF7F655
:102E0000284607FB169A05E03AD007FB00C00125CB
:102E10001EF801BBABF1300CBCF1090F06D9ABF1C8
:102E2000410CBCF1190F19D8ABF1370C63451EDD0D
:102E3000B5F1FF3FECD08642E6D24FF0FF35E7E731
:102E400000F0E8F8162303600020BDE8F88F102B8F
:102E5000D3D1BBF1300F23D01F46CEE7ABF1610CCD
:102E6000BCF1190F03D8ABF1570C6345E0DC6B1CC8
:102E70002BD054B9002AE8D085BB1160BDE8F88F8B
:102E8000E245C2DA4FF0FF35C2E74042F2E79EF872
:102E9000003003F0DF03582B08D008273B46ACE78F
:102EA0009EF8000000F0DF005828D5D110279EF8CA
:102EB00001B03B460EF1020E9FE79EF800B04FF0C6
:102EC000004905F1020E012491E72223C8F80030E1
:102ED00032B10EF1FF3148461160CFE78146F8E785
:102EE0004846B2E7B931000810B4044C8446134692
:102EF000206810BC0A466146FFF75ABF0C0000204C
:102F0000830730B546D08418844604E003F8011BDB
:102F10009D0704D09C46A4456346F7D130BD013AD5
:102F20000244A2EB0C02032A29D9CCB204EB0424FC
:102F30000F2A04EB04442FD9A2F1100C2CF00F0C33
:102F400003F11005AC44C3E90044C3E90244103363
:102F50006345F8D112F00C0F02F00F0E18D02EF0CE
:102F6000030C9C44AEF104051A4642F8044B62453A
:102F7000FBD125F0030404330EF003022344002A9E
:102F8000CCD0C9B21A4403F8011B9342FBD130BD27
:102F90007246F4E70346C6E79646E0E78AB330B5E3
:102FA00040EA0104A40786460B4617D1032A07D836
:102FB00014E0043A23D01CF0803F20D1032A26D904
:102FC000DEF80040194653F8045BA4F1013CAC4222
:102FD00070462CEA040C0EF1040EEAD003780C784B
:102FE000013AA34208BF121807D00CE06BB110F8E9
:102FF000013F11F8014FA34205D19042F6D10020C4
:1030000030BD10467047181B30BD184630BD7046A5
:103010001946E3E7014B1868704700BF0C00002019
:1030200070B50F4B0F4DAB42A3EB050607D0B610A2
:10303000002455F8043B01349847A642F9D800F023
:103040007FF8094D094B5E1BAB424FEAA60606D03E
:10305000002455F8043B01349847A642F9D870BDC6
:10306000C4320008C4320008C4320008CC32000860
:10307000704700BF704700BF024B13B1024800F019
:1030800005B8704700000000993000080023014691
:103090001A46184600F014B838B5074D074C2C1BDB
:1030A000A41005D0013C55F8043D9847002CF9D1F7
:1030B000BDE8384000F04AB8D0320008CC320008F1
:1030C0002DE9F8431B4D0646286898460F46914661
:1030D000FFF7CEFF184B1C681CB3286865681F2DCE
:1030E00022DC4EB96B1C0235636044F82570FFF793
:1030F000C1FF0020BDE8F88304EB85010123C1F87E
:103100008890D4F88821AB401A43022EC4F8882155
:10311000C1F80881E6D1D4F88C211A43C4F88C2177
:10312000E0E7064C1C60D8E7FFF7A4FF4FF0FF3044
:10313000E0E700BF50010020F0070020F407002066
:10314000F8B500BFF8BC08BC9E467047F8B500BF94
:08315000F8BC08BC9E46704764
:103158000D0A000068656C7000000000746F207331
:103168006574204441432076616C75652C20747920
:103178007065206064616320736574203C3132207F
:103188006269742076616C75653E600064616320D5
:1031980073657420000000000000000001020304B1
:1031A80000000000000000000102030406070809EF
:1031B80000202020202020202020282828282820FF
:1031C80020202020202020202020202020202020F7
:1031D800208810101010101010101010101010105F
:1031E800100404040404040404040410101010104F
:1031F8001010414141414141010101010101010119
:10320800010101010101010101010101101010106A
:1032180010104242424242420202020202020202EA
:10322800020202020202020202020202101010103E
:103238002000000000000000000000000000000066
:103248000000000000000000000000000000000076
:103258000000000000000000000000000000000066
:103268000000000000000000000000000000000056
:103278000000000000000000000000000000000046
:103288000000000000000000000000000000000036
:103298000000000000000000000000000000000026
:1032A8000000000000000000000000000000000016
:0432B8000000000012
:0832BC0084CFFF7F0100000038
:0832C4007930000881060008C2
:0432CC005906000897
:1032D0000024F40001000000100000001000002095
:1032E00000000000B40600201C0700208407002016
:1032F00000000000000000000000000000000000CE
:1033000000000000000000000000000000000000BD
:1033100000000000000000000000000000000000AD
:10332000000000000000000000000000000000009D
:10333000000000000000000000000000000000008D
:10334000000000000000000000000000000000007D
:10335000000000000000000000000000000000006D
:10336000000000000000000000000000000000005D
:10337000000000000000000001000000000000004C
:103380000E33CDAB34126DE6ECDE05000B00000011
:10339000000000000000000000000000000000002D
:1033A000000000000000000000000000000000001D
:1033B000000000000000000000000000000000000D
:1033C00000000000000000000000000000000000FD
:1033D00000000000000000000000000000000000ED
:1033E00000000000000000000000000000000000DD
:1033F00000000000000000000000000000000000CD
:1034000000000000000000000000000000000000BC
:1034100000000000000000000000000000000000AC
:04342000EC07002095
:0400000508000D5D85
:00000001FF
