:020000040800F2
:1000000000000420FD070008E1070008E3070008DE
:10001000E5070008E7070008E907000800000000FE
:10002000000000000000000000000000EB070008D6
:10003000ED07000800000000EF070008F1070008C6
:100040004D0800084D0800084D0800084D0800083C
:100050004D0800084D0800084D0800084D0800082C
:100060004D0800084D0800084D0800084D0800081C
:100070004D0800084D0800084D0800084D0800080C
:100080004D0800084D0800084D0800084D080008FC
:100090004D0800084D0800084D0800084D080008EC
:1000A0004D0800084D0800084D0800084D080008DC
:1000B0004D0800084D0800084D0800084D080008CC
:1000C0004D0800084D0800084D0800084D080008BC
:1000D0004D0800084D0800084D0800084D080008AC
:1000E0004D0800084D0800084D0800084D0800089C
:1000F0004D0800084D0800084D0800084D0800088C
:100100004D0800084D0800084D0800084D0800087B
:100110004D0800084D0800084D0800084D0800086B
:100120004D0800084D0800084D0800084D0800085B
:100130004D08000800000000000000000000000062
:100140000000000000000000000000004D08000852
:100150004D0800084D0800084D0800084D0800082B
:100160004D0800084D0800084D0800084D0800081B
:100170004D0800084D0800080000000000000000C5
:100180004D0800084D0800084D0800084D080008FB
:100190004D0800084D080008000000004D08000848
:1001A0000000000000000000000000004D080008F2
:1001B0004D0800084D080008000000000000000085
:1001C000000000000000000000000000000000002F
:1001D0000000000000000000000000004D080008C2
:1001E00053B94AB9002908BF00281CBF4FF0FF319E
:1001F0004FF0FF3000F00CB8ADF1080C6DE904CE03
:1002000002F0E2F9DDF804E0DDE9022304B0704712
:10021000704700BF0348044B834202D0034B03B135
:100220001847704710000020100000200000000058
:100230000548064B1B1AD90F01EBA301491002D048
:10024000034B03B118477047100000201000002036
:100250000000000010B5064C237843B9FFF7DAFF21
:10026000044B13B10448AFF300800123237010BD89
:1002700010000020000000007C2A000808B5054B93
:100280001BB105490548AFF30080BDE80840FFF702
:10029000CFBF00BF00000000140000207C2A00082F
:1002A00030B585B00024009401940294039400F0CA
:1002B00033FD01238DF800308DF8014001941F2299
:1002C0008DF8082087228DF809208DF80A408DF8D6
:1002D0000B408DF80C308DF80D308DF80E408DF8F8
:1002E0000F40684600F036FD042000F023FD05B005
:1002F00030BD00002DE9F0438BB005AD002405941E
:100300000694079408940994314B1A6B42F08002CA
:100310001A631A6B02F080020192019A1A6B42F082
:1003200004021A631A6B02F004020292029A1A6B18
:1003300042F001021A631A6B02F001020392039A5F
:100340001A6B42F002021A631B6B03F00203049360
:10035000049BDFF8808022460C21404600F062FEBC
:100360001D4F22464FF40161384600F05BFE0C231E
:10037000059301260696079408942946404600F006
:1003800059FDEE230593069407962946134800F07D
:1003900051FD4FF40069CDF8149006960796089425
:1003A0002946384600F046FDCDF81490069407948F
:1003B0002946404600F03EFD10230593069607941B
:1003C00008942946384600F035FD0BB0BDE8F083AF
:1003D00000380240000802400004024000000240D1
:1003E00072B6FEE708B51148114B0360114B43602C
:1003F000002383600122C260036143618361C361A2
:10040000036200F0F1FE50B90021084800F0ECFF53
:1004100038B90021054801F014F820B908BDFFF7EC
:10042000DFFFFFF7DDFFFFF7DBFF00BFB4000020B9
:10043000005400405B3D300008B50B480B4B036097
:100440004FF4E133436000238360C36003610C22F7
:1004500042618361C3610362436202F083F800B9C1
:1004600008BDFFF7BDFF00BF2C00002000100140B9
:1004700000B585B0002300930193029303931348C2
:10048000134A0260436083600361836180F8203017
:10049000C362104A8262C3600122C26180F83030B8
:1004A000426100F0B3FA68B90A2300930123019373
:1004B000002302936946054800F0D4FA20B905B03C
:1004C0005DF804FBFFF78CFFFFF78AFF1C0100209B
:1004D000002001400100000F00B583B0002300930D
:1004E00001930A480A4B036000F060FC50B90022F7
:1004F000009201926946054800F06AFC20B903B0F9
:100500005DF804FBFFF76CFFFFF76AFF08010020AE
:100510000074004010B594B008AC30220021204691
:1005200002F0CEF9002303930493059306930793F7
:10053000184A116C41F080511164126C02F0805223
:100540000192019A14490A6822F4404242F480421E
:100550000A600A6802F440420292029A0222089259
:1005600001220B9210220C920E93204600F094FF71
:1005700060B90F230393002104910591069107911F
:1005800003A801F0F7F918B914B010BDFFF728FF60
:10059000FFF726FF003802400070004008B5FFF763
:1005A0007FFE00F07BF9FFF7B5FFFFF7A3FEFFF733
:1005B00019FFFFF741FFFFF75BFFFFF78DFF4FF4D8
:1005C0007A730A225E21024800F072FEF7E700BF4C
:1005D000B400002082B00A4B1A6C42F080521A64B8
:1005E0001A6C02F080520092009A5A6C42F48042D7
:1005F0005A645B6C03F480430193019B02B0704723
:100600000038024000B589B000230393049305939A
:1006100006930793026803F1804303F590339A42EF
:1006200002D009B05DF804FB03F58C335A6C42F438
:1006300080725A645A6C02F480720192019A1A6BA9
:1006400042F004021A631B6B03F004030293029B43
:10065000012303930323049303A9024800F0EAFB58
:10066000DFE700BF0008024000B589B00023039314
:1006700004930593069307930268114B9A4202D0A4
:1006800009B05DF804FB03F5E2331A6C42F0005246
:100690001A641A6C02F000520192019A1A6B42F02D
:1006A00001021A631B6B03F001030293029B1023E8
:1006B00003930323049303A9024800F0BBFBDFE785
:1006C000007400400000024010B5A8B004460021AC
:1006D00023912491259126912791802203A802F04D
:1006E000EFF82268184B9A4201D028B010BD4FF4A1
:1006F0008043039303A801F019FA08BB134C236B42
:1007000043F002032363236B03F002030193019B75
:10071000C02323931223249300232593032326939A
:100720000423279323A90A4800F084FB236C43F495
:1007300000132364236C03F400130293029BD4E799
:10074000FFF74EFEDAE700BF0054004000380240D9
:100750000004024010B5A8B0044600212391249162
:10076000259126912791802203A802F0A9F82268FA
:10077000184B9A4201D028B010BD4023039303A820
:1007800001F0D4F910BB144B5A6C42F010025A64B9
:100790005A6C02F010020192019A1A6B42F00102A7
:1007A0001A631B6B03F001030293029B4FF4C063B7
:1007B00023930223249300232593032326930723C3
:1007C000279323A9054800F035FBD4E7FFF708FE7F
:1007D000D9E700BF0010014000380240000002408D
:1007E000FEE7FEE7FEE7FEE7FEE77047704770476B
:1007F00008B500F05FF808BD70470000DFF834D09E
:10080000FFF7FAFF0C480D490D4A002302E0D458C7
:10081000C4500433C4188C42F9D30A4A0A4C00234A
:1008200001E013600432A242FBD302F097F8FFF715
:10083000B5FE7047000004200000002010000020DA
:10084000C02A00081000002000030020FEE700007E
:1008500010B504460E4B1A784FF47A73B3FBF2F3DB
:100860000C4A1068B0FBF3F000F042FA68B90F2CA4
:1008700001D901200AE0002221464FF0FF3000F0AC
:1008800027FA054B1C60002000E0012010BD00BFCE
:1008900004000020000000200800002008B503200C
:1008A00000F004FA0F20FFF7D3FFFFF793FE0020BC
:1008B00008BD0000034A1168034B1B780B4413600A
:1008C000704700BF6401002004000020014B18683D
:1008D000704700BF640100204A4B5A6822F440323E
:1008E0005A605A6841680A435A600268536823F4A0
:1008F0008073536002685368016943EA01235360BF
:100900000268536823F0407353600268536881683B
:100910000B4353600268936823F40063936002689A
:100920009368C1680B439360826A374B9A4257D0F1
:100930000268936823F07063936002689368816A29
:100940000B4393600268936823F0405393600268FE
:100950009368C16A0B4393600268936823F00203B3
:10096000936002689368816943EA4103936090F859
:100970002030002B3FD00268536843F4006353607B
:100980000268536823F46043536001684B68426A0D
:10099000013A43EA42334B600268D36A23F470039E
:1009A000D3620168CB6AC269013A43EA0253CB625F
:1009B0000268936823F4007393600268936890F868
:1009C000301043EA412393600268936823F4806304
:1009D000936002689368416943EA8123936070479A
:1009E0000268936823F0706393600268936823F051
:1009F00040539360B0E70268536823F40063536088
:100A0000CAE700BF002301400100000F28B310B562
:100A10000446036C43B1236C13F0100F0BD001207C
:100A2000002384F83C3010BDFFF7ECFD0023636425
:100A300084F83C30EFE7226C094B134043F002038B
:100A400023642046FFF748FF00206064236C23F0F6
:100A5000030343F001032364E2E70120704700BF72
:100A6000FDEEFFFF30B482B00022019290F83C20EE
:100A7000012A00F0DC800346012280F83C200A684D
:100A8000B2F1004F18BF092A22D90468E06892B277
:100A900002EB42021E3A4FF0070C0CFA02F220EA77
:100AA0000202E2600A68634882420AD01D68E86870
:100AB0008C6892B202EB42021E3A94402043E860F6
:100AC0001CE01868C2688C6842EA0462C26015E0E3
:100AD0000468206992B202EB42024FF0070C0CFA54
:100AE00002F220EA020222611C6820690A8802EBF5
:100AF00042028D6805FA02F2024322614A68062A20
:100B000029D81C68606B02EB8202053A4FF01F0C7B
:100B10000CFA02F220EA020262631C68606B4A6807
:100B200002EB8202053AB1F800C00CFA02F202436D
:100B300062631868404A90423DD018683E4A90422D
:100B400043D018683C4A90424CD0002083F83C00C7
:100B500002B030BC70470C2A16D81D68286B02EB17
:100B60008202233A1F2404FA02F220EA02022A63D4
:100B70001D68286B4A6802EB8202233A0C8804FA4B
:100B800002F202432A63D4E71D68E86A02EB82029C
:100B9000413A1F2404FA02F220EA0202EA621D68C6
:100BA000E86A4A6802EB8202413A0C8804FA02F2CF
:100BB0000243EA62BDE70A68B2F1004FBDD11F48A7
:100BC000426822F440024260B7E70A68122AB8D1AC
:100BD0001A4A506820F400005060506840F48000C9
:100BE0005060AEE70A681348112A18BF8242ACD1A0
:100BF000124A506820F480005060506840F40000B1
:100C0000506009680B4A91429FD10D4A12680D4904
:100C1000A1FB0212920C02EB82025200019202E04E
:100C2000019A013A0192019A002AF9D18DE7022036
:100C30008EE700BF12000010002001400023014099
:100C40000000002083DE1B43002804DB0901C9B239
:100C5000044B1954704700F00F000901C9B2024B50
:100C60001954704700E400E014ED00E000B500F016
:100C70000700C0F1070CBCF1040F28BF4FF0040CB3
:100C8000031D062B0FD9C31E4FF0FF3E0EFA0CF0CA
:100C900021EA000199400EFA03FE22EA0E0241EA1F
:100CA00002005DF804FB0023EEE700000649CB6874
:100CB00023F4E0631B041B0C000200F4E060034318
:100CC000024A1A43CA60704700ED00E00000FA05CE
:100CD00010B50446054BD868C0F30220FFF7C6FFE5
:100CE00001462046FFF7B0FF10BD00BF00ED00E059
:100CF0000138B0F1807F0BD24FF0E0235861054AF4
:100D0000F02182F823100020986107221A617047B1
:100D10000120704700ED00E0BFF35F8F044B5A6A7B
:100D200022F480325A620022C3F89420704700BF38
:100D300000ED00E040F00100054BC3F894005A6A52
:100D400042F480325A62BFF34F8FBFF36F8F704708
:100D500000ED00E04378144AC2F89830D2F8A03091
:100D600023F00103C2F8A0304368C2F89C30017B35
:100D7000C37A1B0643EA0173817A43EAC143417B8C
:100D800043EA8143817B43EA4143C17B43EA014318
:100D9000417A43EA0123017A43EA410301780B4394
:100DA000C2F8A030704700BF00ED00E070B110B590
:100DB0000446037933B1022323710020206101230B
:100DC000237110BD4371FFF74FFCF4E7012070471A
:100DD000002918BF002828D003464079012826D0D2
:100DE00010B54FF0010E83F805E0022018711C6861
:100DF000206802F0100240F6FE7C0CFA02FC20EAA9
:100E00000C0C086849680143914041EA0C012160DB
:100E10001C682168C02000FA02F221EA0202226066
:100E200083F804E00020587110BD012070470220B3
:100E30007047000000230F2B00F2EA8030B583B02A
:100E400068E085684FEA430E032404FA0EF425EAAD
:100E50000405CC6804FA0EF42C438460446824EA48
:100E600002044A68C2F300129A40224342605FE0E3
:100E7000DC08083450F8242003F00705AD004FF0DB
:100E80000F0E0EFA05FE22EA0E0E0A69AA4042EA89
:100E90000E0240F824205FE0072200E0002202FA60
:100EA0000EF22A4302345B4D45F824205A4A9468D6
:100EB0006FEA0C0224EA0C05D1F804E01EF4801F4E
:100EC00001D04CEA0405544CA560E46802EA04052C
:100ED000D1F804E01EF4001F01D04CEA04054E4C8A
:100EE000E560646802EA0405D1F804E01EF4003FFE
:100EF00001D04CEA0405484C6560246822404D68E6
:100F000015F4803F01D04CEA0402434C22600133C7
:100F10000F2B7BD801229A400C6804EA020C32EABB
:100F20000404F4D14C6804F00304013C012C88D97A
:100F30004A6802F00302032A09D0C4685D00032254
:100F4000AA4024EA02048A68AA402243C2604A688E
:100F500002F00302022A8BD004684FEA430E0322F8
:100F600002FA0EF224EA02044A6802F0030202FACC
:100F70000EF2224302604A6812F4403FC7D0274A6B
:100F8000546C44F480445464526C02F480420192E4
:100F9000019A9C08A51C1F4A52F8255003F0030E25
:100FA0004FEA8E0E0F2202FA0EF225EA02051C4AC3
:100FB00090423FF473AF02F5806290421AD002F57E
:100FC0008062904218D002F58062904216D002F5FD
:100FD0008062904214D002F58062904212D002F5F5
:100FE0008062904210D002F5806290423FF454AF8C
:100FF000082254E7012252E7022250E703224EE77B
:1010000004224CE705224AE7062248E703B030BD38
:10101000704700BF00380140003C014000380240EA
:10102000000002400AB18161704709048161704784
:1010300003689A6912F0020F01D000229A620368D5
:101040009A6912F0010F03D19A6942F001029A6184
:1010500070472DE9F041044603689E6916F01006BA
:101060007ED00D4690461022DA610026374623686E
:10107000986910F0200F32D18FBBB5F1FF3FF6D049
:10108000FFF724FCA0EB0800A84201D8002DEED108
:1010900021684A6802F4804294F84230DBB28869E1
:1010A00010F4004F04D0203B18BF012302B973B9DC
:1010B00023689B6913F0200FD9D1FFF707FCA0EB41
:1010C00008001928F4D946F020060127CFE74B681D
:1010D00043F480434B60FFF7F9FB8046E8E70FB924
:1010E0002022DA6146F0040601252268936913F490
:1010F000807F05D046F001064FF48071D161012553
:1011000013F4806F06D046F0080622684FF4806121
:10111000D161012513F4007F24D046F00206236834
:101120004FF40072DA6101252046FFF781FF226843
:10113000536823F0FF7323F48B3323F4FF7323F0FE
:1011400001035360636C33436364202384F84130AC
:10115000002384F8423084F840302846BDE8F0810E
:101160000025C2E7002DF8D0DEE72DE9F84305465B
:10117000884617461E46DDF820902B689C6938EAA1
:1011800004040CBF01230023BB4227D14A46314649
:101190002846FFF75EFF20BBB6F1FF3FEDD0FFF71B
:1011A00095FBA0EB0900B04201D8002EE5D12B68D9
:1011B0009B6938EA03030CBF01230023BB42DCD147
:1011C0006B6C43F020036B64202385F841300023CF
:1011D00085F8423085F84030012000E00020BDE86D
:1011E000F8830120FBE7000000285DD010B504461D
:1011F00090F84130002B46D0242384F841302268F7
:10120000136823F0010313606368226823F070639E
:1012100013612268936823F400439360E368012B11
:1012200036D0A368226843F404439360E368022B3A
:1012300034D02268536823F40063536022685168F5
:101240001A4B0B4353602268D36823F40043D360E6
:10125000236962691343A169226843EA0123D360C9
:10126000E369216A22680B4313602268136843F024
:101270000103136000206064202384F84130206360
:1012800084F8420010BD80F84030FFF71DFAB3E744
:10129000A368226843F400439360C7E72268536859
:1012A00043F400635360C9E70120704700800002E7
:1012B0002DE9F04385B01D460023039390F841309B
:1012C000202B40F0838006468846914603689B6940
:1012D00013F4004F7CD190F84030012B7AD00123D9
:1012E00080F84030242380F8413000234364F368C1
:1012F000012B10D0C8F30902394B134332685360F5
:10130000FFF7E4FA074632689369C3F3401C936918
:10131000C3F300130BE0C8F30902324B1343EDE7AC
:1013200033689C69C4F3401C9B69C3F300135CEAF7
:10133000030C17D1B5F1FF3FF2D0FFF7C7FAC01B7E
:10134000A84201D8002DEBD1202386F84130736CE0
:1013500043F020037364002386F84030012005B079
:10136000BDE8F08333689B6913F0100F1DD0009720
:101370002B46002220213046FFF7F7FE70BB336872
:101380001022DA6133682022DA61039B0133039370
:10139000039B4B45ABD386F84120736C13437364B6
:1013A000002386F840300120D9E700972B46002221
:1013B00020213046FFF7D9FE70B932682023D3616F
:1013C00086F84130002386F84030C8E70220C6E79F
:1013D0000220C4E70220C2E70120C0E70120BEE7E7
:1013E0000028000200200002034690F84120202A35
:1013F00023D190F84020012A21D0012280F84020FA
:10140000242280F841200068026822F00102026074
:101410001868026822F480520260186802680A4361
:10142000026019680A6842F001020A60202283F80B
:101430004120002083F840007047022070470220BE
:101440007047034690F84120202A21D190F840208F
:10145000012A1FD0012280F84020242280F8412058
:101460000068026822F0010202601868026822F433
:10147000706242EA0122026019680A6842F00102C1
:101480000A60202283F84120002083F84000704742
:101490000220704702207047002800F0FF8170B5DD
:1014A00082B00446036813F0010F29D0954B9B6866
:1014B00003F00C03042B1AD0924B9B6803F00C032F
:1014C000082B0FD06368B3F5803F40D0002B54D178
:1014D0008C4B1A6822F480321A601A6822F4802237
:1014E0001A6039E0874B5B6813F4800FEAD0854BB4
:1014F0001B6813F4003F03D06368002B00F0D08119
:10150000236813F0020F74D07E4B9B6813F00C0F0E
:101510005ED07C4B9B6803F00C03082B53D0E36830
:10152000002B00F08980774A136843F001031360B1
:10153000FFF7CCF90546734B1B6813F0020F72D10D
:10154000FFF7C4F9401B0228F5D90320ADE16D4A2D
:10155000136843F48033136063682BB3FFF7B6F965
:101560000546684B1B6813F4003FC9D1FFF7AEF97D
:10157000401B6428F5D9032097E1B3F5A02F09D0CB
:10158000604B1A6822F480321A601A6822F48022B2
:101590001A60E1E75B4B1A6842F480221A601A680D
:1015A00042F480321A60D7E7FFF790F90546554BB1
:1015B0001B6813F4003FA3D0FFF788F9401B642891
:1015C000F5D9032071E14F4B5B6813F4800FA6D16E
:1015D0004C4B1B6813F0020F03D0E368012B40F063
:1015E0006181484A136823F0F803216943EAC10383
:1015F0001360236813F0080F46D0636983B3414A30
:10160000536F43F001035367FFF760F905463D4B05
:101610005B6F13F0020F37D1FFF758F9401B022818
:10162000F5D9032041E1374A136823F0F803216913
:1016300043EAC1031360DCE7324A136823F0010375
:101640001360FFF743F905462E4B1B6813F0020F9A
:10165000CFD0FFF73BF9401B0228F5D9032024E146
:10166000284A536F23F001035367FFF72FF905460C
:10167000244B5B6F13F0020F06D0FFF727F9401BD6
:101680000228F5D9032010E1236813F0040F7DD060
:101690001C4B1B6C13F0805F1ED11A4B1A6C42F06E
:1016A00080521A641B6C03F080530193019B012547
:1016B000154B1B6813F4807F10D0A368012B25D035
:1016C000002B3BD10F4B1A6F22F001021A671A6FE1
:1016D00022F004021A671EE00025E9E70A4A1368AF
:1016E00043F480731360FFF7F1F80646064B1B685E
:1016F00013F4807FE1D1FFF7E9F8801B6428F5D966
:101700000320D2E000380240007000406E4A136FA0
:1017100043F001031367A36833B3FFF7D7F8064616
:10172000694B1B6F13F0020F2FD1FFF7CFF8801B0F
:1017300041F288339842F3D90320B6E0052B09D053
:10174000614B1A6F22F001021A671A6F22F004022D
:101750001A67E0E75C4B1A6F42F004021A671A6FCF
:1017600042F001021A67D6E7FFF7B0F80646564B7B
:101770001B6F13F0020F08D0FFF7A8F8801B41F28F
:1017800088339842F3D903208FE0FDB9A369002B79
:1017900000F08A804C4A926802F00C02082A58D065
:1017A000022B19D0484A136823F080731360FFF7A7
:1017B0008DF80446444B1B6813F0007F47D0FFF7B9
:1017C00085F8001B0228F5D903206EE03E4A136C11
:1017D00023F080531364D9E73B4A136823F08073E6
:1017E0001360FFF773F80546374B1B6813F0007F53
:1017F00006D0FFF76BF8401B0228F5D9032054E010
:10180000E369226A1343626A43EA8213A26A5208B6
:10181000013A43EA0243E26A43EA026343F00053B7
:10182000294A5360136843F080731360FFF74EF842
:101830000446254B1B6813F0007F06D1FFF746F8DE
:10184000001B0228F5D903202FE000202DE0002006
:101850002BE01D4A5268012B29D002F48003E16974
:101860008B4226D102F03F03216A8B4223D1616A69
:1018700047F6C0731340B3EB811F1ED102F4403111
:10188000A36A5B08013BB1EB034F18D102F0706211
:10189000E36AB2EB036F14D1002006E00120704729
:1018A000012002E0012000E0002002B070BD012014
:1018B000FBE70120F9E70120F7E70120F5E7012028
:1018C000F3E70120F1E700BF0038024008B5264BDE
:1018D0009B6803F00C03042B41D0082B41D1224B11
:1018E0005A6802F03F025B6813F4800F12D01E4B5F
:1018F0005968C1F388111D480023A1FB0001FEF7C0
:101900006FFC194B5B68C3F3014301335B00B0FB11
:10191000F3F008BD144B5868C0F388104FEA401C20
:10192000BCEB000C6EEB0E0E4FEA8E1343EA9C6389
:101930004FEA8C11B1EB0C0163EB0E03DB0043EAC1
:101940005173C90011EB000C43F10003990200230D
:101950004FEA8C2041EA9C51FEF742FCD1E7034854
:10196000D7E70348D5E700BF0038024040787D0143
:101970000024F400002800F0A08070B50D46044655
:10198000524B1B6803F00F038B420BD24F4A136874
:1019900023F00F030B431360136803F00F038B4214
:1019A00040F08D80236813F0020F17D013F0040F5E
:1019B00004D0474A936843F4E0539360236813F0DC
:1019C000080F04D0424A936843F460439360404A4E
:1019D000936823F0F003A1680B439360236813F02E
:1019E000010F31D06368012B20D0022B25D0384A5B
:1019F000126812F0020F64D035498A6822F003029F
:101A000013438B60FEF762FF0646314B9B6803F081
:101A10000C036268B3EB820F16D0FEF757FF801BF2
:101A200041F288339842F0D9032045E0284A1268F1
:101A300012F4003FE0D101203EE0254A126812F086
:101A4000007FD9D1012037E0204B1B6803F00F0342
:101A5000AB420AD91D4A136823F00F032B431360CE
:101A6000136803F00F03AB422DD1236813F0040F6A
:101A700006D0174A936823F4E053E1680B43936060
:101A8000236813F0080F07D0114A936823F46043CA
:101A9000216943EAC1039360FFF718FF0C4B9B6871
:101AA000C3F303130B4AD35CD8400B4B18600B4BAA
:101AB0001868FEF7CDFE002070BD012070470120A0
:101AC000FAE70120F8E70120F6E700BF003C0240FA
:101AD000003802409C2A0008000000200800002076
:101AE000014B1868704700BF0000002008B5FFF7E1
:101AF000F7FF044B9B68C3F38223034AD35CD840AF
:101B000008BD00BF00380240942A000808B5FFF75E
:101B1000E7FF044B9B68C3F34233034AD35CD840CE
:101B200008BD00BF00380240942A0008F0B583B019
:101B30000446066816F001060DD0AB4B9A6822F4F5
:101B400000029A609A68C16A0A439A60C36A002BCD
:101B500000F023810026256815F4002511D0A24A43
:101B6000D2F88C3023F44013616B0B43C2F88C30F5
:101B7000636BB3F5801F00F01281002B00F0118120
:101B80000025236813F4801F0FD0974AD2F88C30B9
:101B900023F44003A16B0B43C2F88C30A36BB3F565
:101BA000800F00F0008103B90125236813F0200F96
:101BB00040F0FB80236813F0100F0CD08A4BD3F851
:101BC0008C2022F08072C3F88C20D3F88C20216BFB
:101BD0000A43C3F88C20236813F4804F08D0824A4C
:101BE000D2F8903023F44033E16D0B43C2F89030CB
:101BF000236813F4004F08D07B4AD2F8903023F4C6
:101C00004023216E0B43C2F89030236813F4803FC9
:101C100008D0754AD2F8903023F44013616E0B431C
:101C2000C2F89030236813F0400F08D06E4AD2F803
:101C3000903023F00303E16B0B43C2F8903023682C
:101C400013F0800F08D0684AD2F8903023F00C03CC
:101C5000216C0B43C2F89030236813F4807F08D0C6
:101C6000614AD2F8903023F03003616C0B43C2F824
:101C70009030236813F4007F08D05B4AD2F890308C
:101C800023F0C003A16C0B43C2F89030236813F417
:101C9000806F08D0544AD2F8903023F44073E16C3E
:101CA0000B43C2F89030236813F4006F08D04E4AFB
:101CB000D2F8903023F44063216D0B43C2F890308A
:101CC000236813F4805F08D0474AD2F8903023F499
:101CD0004053616D0B43C2F89030236813F4005FEA
:101CE00008D0414AD2F8903023F44043A16D0B4311
:101CF000C2F89030236813F4001F0DD03A4AD2F88E
:101D0000903023F00063616F0B43C2F89030636F33
:101D1000B3F1006F00F0B480236813F4802F08D073
:101D2000314AD2F8903023F04073E16E0B43C2F891
:101D30009030236813F4000F08D02B4AD2F890306B
:101D400023F08053A16F0B43C2F89030236813F047
:101D5000806F08D0244AD2F8903023F00053E16F0E
:101D60000B43C2F8903026B9236813F0007F00F0CF
:101D7000E4801D4A136823F080631360FEF7A6FD1C
:101D80000646194B1B6813F0006F7BD0FEF79EFDD3
:101D9000801B6428F5D90320D2E00126DBE601266A
:101DA000EBE60125EDE60126FDE60F4B1A6C42F04D
:101DB00080521A641B6C03F080530193019B0B4A01
:101DC000136843F480731360FEF780FD0746074BEA
:101DD0001B6813F4807F0BD1FEF778FDC01B6428CD
:101DE000F5D90320ACE000BF00380240007000408D
:101DF000854B1B6F13F4407315D0A26A02F4407236
:101E00009A4210D0804B1A6F22F44072196F41F43D
:101E100080311967196F21F4803119671A671B6FB8
:101E200013F0010F12D1A36A03F44072B2F5407FA0
:101E30001DD0754A936823F4F813936072490B6FB1
:101E4000A26AC2F30B0213430B67B3E6FEF73EFD33
:101E500007466D4B1B6F13F0020FE4D1FEF736FD02
:101E6000C01B41F288339842F3D9032068E06648EA
:101E7000826822F4F812654919400A438260DDE75E
:101E8000012549E7236813F0010F0ED0E36A63B917
:101E90005D4AD2F88430616803F0706343EA8113CD
:101EA000A16843EA0173C2F88430236813F4002F59
:101EB00003D0626BB2F5801F06D013F4801F19D0D7
:101EC000A36BB3F5800F15D14F4AD2F88410606828
:101ED000E3681B0643EA801301F0E0410B43C2F8BC
:101EE0008430D2F88C3023F01F03E16901390B43B1
:101EF000C2F88C30236813F0007F0AD06268E36870
:101F00001B0643EA8213A26843EA02733E4AC2F800
:101F100084303D4A136843F080631360FEF7D6FCBB
:101F20000646394B1B6813F0006F06D1FEF7CEFC56
:101F3000801B6428F5D9032002E0012D02D0002087
:101F400003B0F0BD304A136823F080531360FEF7EE
:101F5000BDFC05462C4B1B6813F0005F06D0FEF756
:101F6000B5FC401B6428F5D90320E9E7236813F486
:101F7000002F01D0626B22B113F4801F18D0A36B25
:101F8000B3B9214AD2F88830216903F4403343EAD7
:101F90008113616943EA0163C2F88830D2F88C305A
:101FA00023F4F853216A013943EA0123C2F88C3043
:101FB000236813F4001F03D0636FB3F1006F13D0D5
:101FC000114A136843F080531360FEF77FFC044608
:101FD0000D4B1B6813F0005F14D1FEF777FC001B5C
:101FE0006428F5D90320ABE70749D1F88820206998
:101FF000A3691B0443EA801302F070621343C1F823
:102000008830DDE700209BE700380240FFFCFF0F2F
:10201000026852E8003F23F4907342E8003100293F
:10202000F6D1026802F1080353E8003F23F00103F0
:10203000083242E800310029F3D1036E012B06D0AB
:102040002023C0F88030002303668366704702684F
:1020500052E8003F23F0100342E800310029F6D196
:10206000EEE7000010B50446836802691343426935
:102070001343C269134301680868914A02401A4336
:102080000A602268536823F44053E1680B435360AD
:10209000A269236A1A4321688B6823F430631343CF
:1020A0008B602368874A934218D0874A934228D08E
:1020B000864A93424FD0864A93425ED0854A9342E5
:1020C0006DD0854A93427FD0844A934200F091803C
:1020D000834A934200F0A280102329E0814BD3F879
:1020E000903003F00303032B09D8DFE803F0020468
:1020F000AB0601231CE004231AE0082318E0102398
:1021000016E0784BD3F8903003F00C030C2B0ED86C
:10211000DFE803F0070D0D0D090D0D0D9A0D0D0DE6
:102120000B00002304E0042302E0082300E0102356
:10213000E069B0F5004F00F0B980082B00F21A8179
:10214000DFE813F0F6000901F40018010C01180192
:10215000180118010F01634BD3F8903003F03003DE
:10216000202B73D005D8002B72D0102B72D10423F2
:10217000DEE7302B70D10823DAE75A4BD3F89030E2
:1021800003F0C003802B69D005D8002B68D0402B0A
:1021900068D10423CCE7C02B66D10823C8E7514B94
:1021A000D3F8903003F44073B3F5007F5ED006D8C7
:1021B000002B5DD0B3F5807F5CD10423B8E7B3F585
:1021C000407F59D10823B3E7464BD3F8903003F44E
:1021D0004063B3F5006F51D006D8002B50D0B3F553
:1021E000806F4FD10423A3E7B3F5406F4CD1082390
:1021F0009EE73C4BD3F8903003F44053B3F5005FB7
:1022000044D006D8002B43D0B3F5805F42D10423DD
:102210008EE7B3F5405F3FD1082389E7314BD3F810
:10222000903003F44043B3F5004F37D005D8BBB32B
:10223000B3F5804F36D104237AE7B3F5404F33D15D
:10224000082375E7022373E7022371E702236FE790
:1022500000236DE710236BE7102369E7022367E78C
:10226000002365E7102363E7102361E702235FE79C
:1022700000235DE710235BE7102359E7022357E7AC
:10228000012355E7102353E7102351E702234FE7BB
:1022900000234DE710234BE7102349E7022347E7CC
:1022A000002345E7102343E7102341E7082B5BD8C1
:1022B000DFE803F01A343A5A375A5A5A1E0000BF60
:1022C000F369FFEF00100140004400400048004067
:1022D000004C0040005000400014014000780040D5
:1022E000007C004000380240FFF700FC00283DD091
:1022F0006268530803EB4003B3FBF2F3A3F1100150
:102300004FF6EF72914233D89AB222F00F02C3F324
:10231000420313432268D36000202CE0FFF7F6FB52
:10232000E4E7FFF7D3FAE1E71748E1E7164802E0F0
:10233000FFF7DCFB18B3636800EB5300B0FBF3F06E
:10234000A0F110024FF6EF739A421AD8236880B2B8
:10235000D86000200FE0FFF7D9FBEBE7FFF7B6FAF4
:10236000E8E74FF40040E6E7012004E0002002E047
:10237000012000E001200023A366E36610BD0020D9
:10238000F9E70120F7E700BF0024F400436A13F0E7
:10239000080F06D00268536823F40043416B0B43D7
:1023A0005360436A13F0010F06D00268536823F4A8
:1023B0000033816A0B435360436A13F0020F06D067
:1023C0000268536823F48033C16A0B435360436A45
:1023D00013F0040F06D00268536823F48023016BC6
:1023E0000B435360436A13F0100F06D002689368E2
:1023F00023F48053816B0B439360436A13F0200FE7
:1024000006D00268936823F40053C16B0B439360BA
:10241000436A13F0400F0AD00268536823F4801314
:10242000016C0B435360036CB3F5801F0BD0436A00
:1024300013F0800F06D00268536823F40023816CE8
:102440000B43536070470268536823F4C003416C28
:102450000B435360EBE72DE9F84305460E4617465C
:102460009946DDF820802B68DC6936EA04040CBF4D
:1024700001240024BC423AD1B8F1FF3FF3D0FEF76B
:1024800025FAA0EB0900404534D8B8F1000F33D04D
:102490002B681A6812F0040FE5D0B6F1400218BF9D
:1024A0000122802EDFD0002ADDD0DA6912F0080F79
:1024B00011D1DA6912F4006FD5D04FF400621A62BC
:1024C0002846FFF7A5FD2023C5F88430002385F8B2
:1024D000783003200CE008241C622846FFF798FDA2
:1024E000C5F88440002385F87830012000E0002002
:1024F000BDE8F8830320FBE70320F9E710B582B0BD
:1025000004460023C0F88430FEF7E0F923681B6816
:1025100013F0080F0AD12023E367C4F880300020AD
:102520002066606684F8780002B010BD6FF07E43CC
:102530000093034600224FF400112046FFF78BFF63
:102540000028E8D0226852E8003F23F0800342E8E8
:1025500000310029F6D12023E367002384F8783086
:102560000320E1E768B310B50446C36F03B3242327
:10257000E3672268136823F001031360636AE3B919
:102580002046FFF76FFD012811D02268536823F41D
:10259000904353602268936823F02A039360226873
:1025A000136843F0010313602046FFF7A7FF10BD37
:1025B00080F87830FEF7CEF8D9E72046FFF7E6FE40
:1025C000DEE70120704700002DE9F047089D0F4627
:1025D00004468C46002B48D18A42164661D9B2FA8D
:1025E00082F34BB1C3F1200201FA03FC20FA02F29C
:1025F0009E4042EA0C0C9C404FEA164EB7B2BCFB20
:10260000FEF1220C0EFB11CC42EA0C4201FB07F05A
:10261000904209D9B21801F1FF3C80F0EE8090425F
:1026200040F2EB8002393244121AA4B2B2FBFEF03F
:102630000EFB102244EA024400FB07F7A74209D927
:10264000341900F1FF3280F0DA80A74240F2D780DF
:102650003444023840EA0140E41B00211DB1DC4053
:102660000023C5E90043BDE8F0878B4206D90DB1D0
:10267000C5E9000100210846BDE8F087B3FA83F1FF
:10268000002948D1BB4202D3824200F20781841A5A
:1026900067EB030201209446002DE4D0C5E9004C0D
:1026A000E1E7002A00F09280B2FA82F3002B40F0BA
:1026B000A8808A1A4FEA164E1FFA86FC0121200CC8
:1026C000B2FBFEF70EFB172240EA02420CFB07F0BA
:1026D000904207D9B21807F1FF3802D2904200F2B7
:1026E000E2804746121AA4B2B2FBFEF00EFB1022A3
:1026F00044EA02440CFB00FCA44507D9341900F15C
:10270000FF3202D2A44500F2CB801046A4EB0C04A9
:1027100040EA0740A2E7C1F120068B4022FA06FCFE
:102720004CEA030C07FA01F420FA06F3F7404FEAEB
:102730001C49234300FA01F81FFA8CFEB7FBF9F09D
:102740001C0C09FB107744EA074400FB0EF7A74274
:1027500002FA01F20AD91CEB040400F1FF3A80F0FE
:102760009B80A74240F2988002386444E41B9FB2E9
:10277000B4FBF9F309FB134447EA044403FB0EFEE0
:10278000A64509D91CEB040403F1FF3780F08280D1
:10279000A6457FD9023B644443EA0040A4EB0E0403
:1027A000A0FB02E7BC427346B94663D360D05DB17B
:1027B000B8EB030264EB090404FA06F622FA01F30B
:1027C0001E43CC40C5E9006400214CE7620848087C
:1027D00042EAC1710B0C43EA00438AB242EA034267
:1027E000B3FBF6F1E407B4463746B6461F23B0FB09
:1027F000F6F0D21B41EA004161E7614614E710465A
:1028000028E7C3F1200120FA01F29E4027FA01F1E6
:102810009F403A434FEA164E1FFA86FCB1FBFEF783
:102820000EFB1710110C41EA004107FB0CF888451C
:1028300004FA03F43AD9711807F1FF3001D2884540
:102840001FD8A1EB0801B1FBFEF808FB0CF70EFB4B
:10285000181192B242EA0142BA422FD2B21808F1DC
:10286000FF31C6D2BA42C4D2A8F102013244C0E755
:10287000F0459CD2BEEB020367EB0C070138B9466A
:1028800095E7A6EB08084144B81EB1FBFEF808FB2B
:102890000CF7DCE73B467FE7504667E70846FBE678
:1028A0003444023832E7023F32441BE7A1EB08010F
:1028B0003846B1FBFEF808FB0CF7C8E7414698E73D
:1028C000830730B546D08418844604E003F8011B22
:1028D0009D0704D09C46A4456346F7D130BD013A1C
:1028E0000244A2EB0C02032A29D9CCB204EB042443
:1028F0000F2A04EB04442FD9A2F1100C2CF00F0C7A
:1029000003F11005AC44C3E90044C3E902441033A9
:102910006345F8D112F00C0F02F00F0E18D02EF014
:10292000030C9C44AEF104051A4642F8044B624580
:10293000FBD125F0030404330EF003022344002AE4
:10294000CCD0C9B21A4403F8011B9342FBD130BD6D
:102950007246F4E70346C6E79646E0E770B50F4BCC
:102960000F4DAB42A3EB050607D0B610002455F877
:10297000043B01349847A642F9D800F07FF8094D8E
:10298000094B5E1BAB424FEAA60606D0002455F861
:10299000043B01349847A642F9D870BDB42A000818
:1029A000B42A0008B42A0008BC2A0008704700BFF7
:1029B000704700BF024B13B1024800F005B87047E2
:1029C00000000000D5290008002301461A461846D9
:1029D00000F014B838B5074D074C2C1BA41005D0D7
:1029E000013C55F8043D9847002CF9D1BDE838402A
:1029F00000F04AB8C02A0008BC2A00082DE9F843B4
:102A00001B4D0646286898460F469146FFF7CEFFB5
:102A1000184B1C681CB3286865681F2D22DC4EB952
:102A20006B1C0235636044F82570FFF7C1FF00207E
:102A3000BDE8F88304EB85010123C1F88890D4F840
:102A40008821AB401A43022EC4F88821C1F80881BE
:102A5000E6D1D4F88C211A43C4F88C21E0E7064C67
:102A60001C60D8E7FFF7A4FF4FF0FF30E0E700BF9E
:102A70000C0000206C01002070010020F8B500BFA0
:102A8000F8BC08BC9E467047F8B500BFF8BC08BC4F
:042A90009E467047A7
:102A94000000000001020304000000000000000028
:082AA400010203040607080902
:082AAC001CFBFF7F010000008C
:082AB400B52900087D020008AD
:042ABC0055020008B7
:102AC0000024F40001000000100000006801002054
:04000005080007FDEB
:00000001FF
