:020000040800F2
:1000000000000420B5070008710600087306000808
:100010007506000877060008790600080000000051
:100020000000000000000000000000007B06000847
:100030007D060008000000007F0600088106000819
:10004000050800080508000805080008050800085C
:10005000050800080508000805080008050800084C
:10006000050800080508000805080008050800083C
:10007000050800080508000805080008050800082C
:10008000050800080508000805080008050800081C
:10009000050800080508000805080008050800080C
:1000A00005080008050800080508000805080008FC
:1000B00005080008050800080508000805080008EC
:1000C00005080008050800080508000805080008DC
:1000D00005080008050800080508000805080008CC
:1000E00005080008050800080508000805080008BC
:1000F00005080008050800080508000805080008AC
:10010000050800080508000805080008050800089B
:10011000050800080508000805080008050800088B
:10012000050800080508000805080008050800087B
:1001300005080008000000000000000000000000AA
:10014000000000000000000000000000050800089A
:10015000050800080508000805080008050800084B
:10016000050800080508000805080008050800083B
:100170000508000805080008000000000000000055
:10018000050800080508000805080008050800081B
:100190000508000805080008000000000508000820
:1001A000000000000000000000000000050800083A
:1001B0000508000805080008000000000000000015
:1001C000000000000000000000000000000000002F
:1001D000000000000000000000000000050800080A
:1001E00053B94AB9002908BF00281CBF4FF0FF319E
:1001F0004FF0FF3000F00CB8ADF1080C6DE904CE03
:1002000001F05AFEDDF804E0DDE9022304B0704796
:10021000704700BF0348044B834202D0034B03B135
:100220001847704714000020140000200000000050
:100230000548064B1B1AD90F01EBA301491002D048
:10024000034B03B11847704714000020140000202E
:100250000000000010B5064C237843B9FFF7DAFF21
:10026000044B13B10448AFF300800123237010BD89
:1002700014000020000000006C23000808B5054BA6
:100280001BB105490548AFF30080BDE80840FFF702
:10029000CFBF00BF00000000180000206C23000842
:1002A00030B585B00024009401940294039400F0CA
:1002B00057FB01238DF800308DF8014001941F2277
:1002C0008DF8082087228DF809208DF80A408DF8D6
:1002D0000B408DF80C308DF80D308DF80E408DF8F8
:1002E0000F40684600F05AFB042000F047FB05B0C1
:1002F00030BD00002DE9F0438BB005AD002405941E
:100300000694079408940994314B1A6B42F08002CA
:100310001A631A6B02F080020192019A1A6B42F082
:1003200004021A631A6B02F004020292029A1A6B18
:1003300042F001021A631A6B02F001020392039A5F
:100340001A6B42F002021A631B6B03F00203049360
:10035000049BDFF8808022460C21404600F049FCD7
:100360001D4F22464FF40161384600F042FC0C2339
:10037000059301260696079408942946404600F006
:1003800039FBFE230593069407962946134800F08F
:1003900031FB4FF40069CDF8149006960796089447
:1003A0002946384600F026FBCDF8149006940794B1
:1003B0002946404600F01EFB10230593069607943D
:1003C00008942946384600F015FB0BB0BDE8F083D1
:1003D00000380240000802400004024000000240D1
:1003E00072B6FEE708B51148114B0360114B43602C
:1003F000002383600122C260036143618361C361A2
:10040000036200F005FC50B90021084800F064FCCC
:1004100038B90021054800F08CFC20B908BDFFF771
:10042000DFFFFFF7DDFFFFF7DBFF00BFBC000020B1
:10043000005400405B3D300008B50B480B4B036097
:100440004FF4E133436000238360C36003610C22F7
:1004500042618361C3610362436201F0FBFC00B946
:1004600008BDFFF7BDFF00BF3400002000100140B1
:1004700010B594B008AC30220021204601F098FE5F
:10048000002303930493059306930793184A116C72
:1004900041F080511164126C02F080520192019A75
:1004A00014490A6822F4404242F480420A600A6811
:1004B00002F440420292029A0222089201220B9216
:1004C00010220C920E93204600F05EFC60B90F23C0
:1004D00003930021049105910691079103A800F070
:1004E000C1FE18B914B010BDFFF77AFFFFF778FF0F
:1004F000003802400070004008B5FFF7D1FE00F060
:10050000A9F9FFF7B5FFFFF7F5FEFFF76BFFFFF760
:1005100093FF00F0DBF8034B186800F0B7F800F029
:1005200047F9F8E70000002082B00A4B1A6C42F04D
:1005300080521A641A6C02F080520092009A5A6C2F
:1005400042F480425A645B6C03F480430193019B44
:1005500002B070470038024010B5A8B00446002130
:1005600023912491259126912791802203A801F0BF
:100570001FFE2268184B9A4201D028B010BD4FF4DC
:100580008043039303A800F049FF08BB134C236B7F
:1005900043F002032363236B03F002030193019BE7
:1005A000C02323931223249300232593032326930C
:1005B0000423279323A90A4800F01CFA236C43F470
:1005C00000132364236C03F400130293029BD4E70B
:1005D000FFF706FFDAE700BF005400400038024092
:1005E0000004024010B5A8B00446002123912491D4
:1005F000259126912791802203A801F0D9FD226838
:10060000184B9A4201D028B010BD4023039303A891
:1006100000F004FF10BB144B5A6C42F010025A64F5
:100620005A6C02F010020192019A1A6B42F0010218
:100630001A631B6B03F001030293029B4FF4C06328
:100640002393022324930023259303232693072334
:10065000279323A9054800F0CDF9D4E7FFF7C0FEA2
:10066000D9E700BF001001400038024000000240FE
:10067000FEE7FEE7FEE7FEE7FEE7704770477047DC
:1006800008B500F0F3F808BD704700000C4B1B687C
:10069000012B13D010B5044600F0F4F8094B1B6889
:1006A0001C44844200D910BD4FF40061064800F09C
:1006B000A6FA00F0E7F8034B1860F4E7704700BFB4
:1006C00030000020100100200004024038B5334DF6
:1006D0000121284600F086FAB0FA80F4640902216C
:1006E000284600F07FFAA0BB02231C4304212B48BC
:1006F00000F078FA78BB04231C430821274800F057
:1007000071FA50BB08231C431021244800F06AFAF8
:1007100028BB10231C432021204800F063FA00BBB3
:1007200020231C4340211D4800F05CFAD8B9402327
:100730001C438021194800F055FAB0B944F08003F9
:10074000174A00211160174A32F81320164B1A601D
:1007500038BD0023C9E70023CEE70023D3E70023F9
:10076000D8E70023DDE70023E2E7E3B25CB1012C28
:10077000E6D100224FF400610C4800F03AFA084B31
:1007800001221A60E4E701224FF40061074800F0FB
:1007900030FA034B01221A60DAE700BF0000024082
:1007A000300000209C2300080000002000040240CC
:1007B00070470000DFF834D0FFF766FF0C480D49A2
:1007C0000D4A002302E0D458C4500433C4188C42AC
:1007D000F9D30A4A0A4C002301E013600432A24212
:1007E000FBD301F033FDFFF787FE704700000420C4
:1007F0000000002014000020C42300081400002082
:10080000B0020020FEE7000010B504460E4B1A7837
:100810004FF47A73B3FBF2F30C4A1068B0FBF3F0B9
:1008200000F08AF868B90F2C01D901200AE00022F3
:1008300021464FF0FF3000F06FF8054B1C600020A0
:1008400000E0012010BD00BF0800002004000020CF
:100850000C00002008B5032000F04CF80F20FFF733
:10086000D3FFFFF761FE002008BD0000034A1168B6
:10087000034B1B780B441360704700BF140100202A
:1008800008000020014B1868704700BF14010020C9
:10089000002804DB0901C9B2044B1954704700F069
:1008A0000F000901C9B2024B1954704700E400E07F
:1008B00014ED00E000B500F00700C0F1070CBCF13A
:1008C000040F28BF4FF0040C031D062B0FD9C31EC5
:1008D0004FF0FF3E0EFA0CF021EA000199400EFAAB
:1008E00003FE22EA0E0241EA02005DF804FB002347
:1008F000EEE700000649CB6823F4E0631B041B0C01
:10090000000200F4E0600343024A1A43CA607047E1
:1009100000ED00E00000FA0510B50446054BD8686C
:10092000C0F30220FFF7C6FF01462046FFF7B0FFE5
:1009300010BD00BF00ED00E00138B0F1807F0BD2A8
:100940004FF0E0235861054AF02182F8231000207F
:10095000986107221A6170470120704700ED00E09E
:10096000BFF35F8F044B5A6A22F480325A6200222E
:10097000C3F89420704700BF00ED00E040F0010094
:10098000054BC3F894005A6A42F480325A62BFF3AE
:100990004F8FBFF36F8F704700ED00E04378144A2C
:1009A000C2F89830D2F8A03023F00103C2F8A0308A
:1009B0004368C2F89C30017BC37A1B0643EA01738B
:1009C000817A43EAC143417B43EA8143817B43EA25
:1009D0004143C17B43EA0143417A43EA0123017A5F
:1009E00043EA410301780B43C2F8A030704700BFCF
:1009F00000ED00E000230F2B00F2EA8030B583B059
:100A000068E085684FEA430E032404FA0EF425EAF1
:100A10000405CC6804FA0EF42C438460446824EA8C
:100A200002044A68C2F300129A40224342605FE027
:100A3000DC08083450F8242003F00705AD004FF01F
:100A40000F0E0EFA05FE22EA0E0E0A69AA4042EACD
:100A50000E0240F824205FE0072200E0002202FAA4
:100A60000EF22A4302345B4D45F824205A4A94681A
:100A70006FEA0C0224EA0C05D1F804E01EF4801F92
:100A800001D04CEA0405544CA560E46802EA040570
:100A9000D1F804E01EF4001F01D04CEA04054E4CCE
:100AA000E560646802EA0405D1F804E01EF4003F42
:100AB00001D04CEA0405484C6560246822404D682A
:100AC00015F4803F01D04CEA0402434C226001330C
:100AD0000F2B7BD801229A400C6804EA020C32EA00
:100AE0000404F4D14C6804F00304013C012C88D9BF
:100AF0004A6802F00302032A09D0C4685D00032299
:100B0000AA4024EA02048A68AA402243C2604A68D2
:100B100002F00302022A8BD004684FEA430E03223C
:100B200002FA0EF224EA02044A6802F0030202FA10
:100B30000EF2224302604A6812F4403FC7D0274AAF
:100B4000546C44F480445464526C02F48042019228
:100B5000019A9C08A51C1F4A52F8255003F0030E69
:100B60004FEA8E0E0F2202FA0EF225EA02051C4A07
:100B700090423FF473AF02F5806290421AD002F5C2
:100B80008062904218D002F58062904216D002F541
:100B90008062904214D002F58062904212D002F539
:100BA0008062904210D002F5806290423FF454AFD0
:100BB000082254E7012252E7022250E703224EE7BF
:100BC00004224CE705224AE7062248E703B030BD7D
:100BD000704700BF00380140003C0140003802402F
:100BE000000002400369194201D001207047002033
:100BF00070470AB181617047090481617047436998
:100C000001EA030221EA030141EA024181617047DE
:100C100000285DD010B5044690F84130002B46D036
:100C2000242384F841302268136823F00103136001
:100C30006368226823F0706313612268936823F469
:100C400000439360E368012B36D0A368226843F425
:100C500004439360E368022B34D02268536823F482
:100C600000635360226851681A4B0B43536022683B
:100C7000D36823F40043D360236962691343A169F5
:100C8000226843EA0123D360E369216A22680B43A7
:100C900013602268136843F001031360002060644E
:100CA000202384F84130206384F8420010BD80F88E
:100CB0004030FFF751FCB3E7A368226843F40043D8
:100CC0009360C7E72268536843F400635360C9E741
:100CD0000120704700800002034690F84120202A3E
:100CE00023D190F84020012A21D0012280F8402011
:100CF000242280F841200068026822F0010202608C
:100D00001868026822F480520260186802680A4378
:100D1000026019680A6842F001020A60202283F822
:100D20004120002083F840007047022070470220D5
:100D30007047034690F84120202A21D190F84020A6
:100D4000012A1FD0012280F84020242280F841206F
:100D50000068026822F0010202601868026822F44A
:100D6000706242EA0122026019680A6842F00102D8
:100D70000A60202283F84120002083F84000704759
:100D80000220704702207047002800F0FF8170B5F4
:100D900082B00446036813F0010F29D0954B9B687D
:100DA00003F00C03042B1AD0924B9B6803F00C0346
:100DB000082B0FD06368B3F5803F40D0002B54D18F
:100DC0008C4B1A6822F480321A601A6822F480224E
:100DD0001A6039E0874B5B6813F4800FEAD0854BCB
:100DE0001B6813F4003F03D06368002B00F0D08130
:100DF000236813F0020F74D07E4B9B6813F00C0F26
:100E00005ED07C4B9B6803F00C03082B53D0E36847
:100E1000002B00F08980774A136843F001031360C8
:100E2000FFF730FD0546734B1B6813F0020F72D1BC
:100E3000FFF728FD401B0228F5D90320ADE16D4ADC
:100E4000136843F48033136063682BB3FFF71AFD14
:100E50000546684B1B6813F4003FC9D1FFF712FD2C
:100E6000401B6428F5D9032097E1B3F5A02F09D0E2
:100E7000604B1A6822F480321A601A6822F48022C9
:100E80001A60E1E75B4B1A6842F480221A601A6824
:100E900042F480321A60D7E7FFF7F4FC0546554B61
:100EA0001B6813F4003FA3D0FFF7ECFC401B642841
:100EB000F5D9032071E14F4B5B6813F4800FA6D185
:100EC0004C4B1B6813F0020F03D0E368012B40F07A
:100ED0006181484A136823F0F803216943EAC1039A
:100EE0001360236813F0080F46D0636983B3414A47
:100EF000536F43F001035367FFF7C4FC05463D4BB6
:100F00005B6F13F0020F37D1FFF7BCFC401B0228C8
:100F1000F5D9032041E1374A136823F0F80321692A
:100F200043EAC1031360DCE7324A136823F001038C
:100F30001360FFF7A7FC05462E4B1B6813F0020F4A
:100F4000CFD0FFF79FFC401B0228F5D9032024E1F6
:100F5000284A536F23F001035367FFF793FC0546BC
:100F6000244B5B6F13F0020F06D0FFF78BFC401B86
:100F70000228F5D9032010E1236813F0040F7DD077
:100F80001C4B1B6C13F0805F1ED11A4B1A6C42F085
:100F900080521A641B6C03F080530193019B01255E
:100FA000154B1B6813F4807F10D0A368012B25D04C
:100FB000002B3BD10F4B1A6F22F001021A671A6FF8
:100FC00022F004021A671EE00025E9E70A4A1368C6
:100FD00043F480731360FFF755FC0646064B1B680D
:100FE00013F4807FE1D1FFF74DFC801B6428F5D915
:100FF0000320D2E000380240007000406E4A136FB8
:1010000043F001031367A36833B3FFF73BFC0646C5
:10101000694B1B6F13F0020F2FD1FFF733FC801BBE
:1010200041F288339842F3D90320B6E0052B09D06A
:10103000614B1A6F22F001021A671A6F22F0040244
:101040001A67E0E75C4B1A6F42F004021A671A6FE6
:1010500042F001021A67D6E7FFF714FC0646564B2A
:101060001B6F13F0020F08D0FFF70CFC801B41F23E
:1010700088339842F3D903208FE0FDB9A369002B90
:1010800000F08A804C4A926802F00C02082A58D07C
:10109000022B19D0484A136823F080731360FFF7BE
:1010A000F1FB0446444B1B6813F0007F47D0FFF769
:1010B000E9FB001B0228F5D903206EE03E4A136CC1
:1010C00023F080531364D9E73B4A136823F08073FD
:1010D0001360FFF7D7FB0546374B1B6813F0007F03
:1010E00006D0FFF7CFFB401B0228F5D9032054E0C0
:1010F000E369226A1343626A43EA8213A26A5208CE
:10110000013A43EA0243E26A43EA026343F00053CE
:10111000294A5360136843F080731360FFF7B2FBF2
:101120000446254B1B6813F0007F06D1FFF7AAFB8E
:10113000001B0228F5D903202FE000202DE000201D
:101140002BE01D4A5268012B29D002F48003E1698B
:101150008B4226D102F03F03216A8B4223D1616A80
:1011600047F6C0731340B3EB811F1ED102F4403128
:10117000A36A5B08013BB1EB034F18D102F0706228
:10118000E36AB2EB036F14D1002006E00120704740
:10119000012002E0012000E0002002B070BD01202B
:1011A000FBE70120F9E70120F7E70120F5E701203F
:1011B000F3E70120F1E700BF0038024008B5264BF5
:1011C0009B6803F00C03042B41D0082B41D1224B28
:1011D0005A6802F03F025B6813F4800F12D01E4B76
:1011E0005968C1F388111D480023A1FB0001FEF7D7
:1011F000F7FF194B5B68C3F3014301335B00B0FB9E
:10120000F3F008BD144B5868C0F388104FEA401C37
:10121000BCEB000C6EEB0E0E4FEA8E1343EA9C63A0
:101220004FEA8C11B1EB0C0163EB0E03DB0043EAD8
:101230005173C90011EB000C43F100039902002324
:101240004FEA8C2041EA9C51FEF7CAFFD1E70348E0
:10125000D7E70348D5E700BF0038024040787D015A
:101260000024F400002800F0A08070B50D4604466C
:10127000524B1B6803F00F038B420BD24F4A13688B
:1012800023F00F030B431360136803F00F038B422B
:1012900040F08D80236813F0020F17D013F0040F75
:1012A00004D0474A936843F4E0539360236813F0F3
:1012B000080F04D0424A936843F460439360404A65
:1012C000936823F0F003A1680B439360236813F045
:1012D000010F31D06368012B20D0022B25D0384A72
:1012E000126812F0020F64D035498A6822F00302B6
:1012F00013438B60FFF7C6FA0646314B9B6803F039
:101300000C036268B3EB820F16D0FFF7BBFA801BA9
:1013100041F288339842F0D9032045E0284A126808
:1013200012F4003FE0D101203EE0254A126812F09D
:10133000007FD9D1012037E0204B1B6803F00F0359
:10134000AB420AD91D4A136823F00F032B431360E5
:10135000136803F00F03AB422DD1236813F0040F81
:1013600006D0174A936823F4E053E1680B43936077
:10137000236813F0080F07D0114A936823F46043E1
:10138000216943EAC1039360FFF718FF0C4B9B6888
:10139000C3F303130B4AD35CD8400B4B18600B4BC1
:1013A0001868FFF731FA002070BD01207047012056
:1013B000FAE70120F8E70120F6E700BF003C024011
:1013C000003802408C230008040000200C0000209C
:1013D000014B1868704700BF0400002008B5FFF7F4
:1013E000F7FF044B9B68C3F38223034AD35CD840C6
:1013F00008BD00BF003802408423000808B5FFF78D
:10140000E7FF044B9B68C3F34233034AD35CD840E5
:1014100008BD00BF0038024084230008F0B583B047
:101420000446066816F001060DD0AB4B9A6822F40C
:1014300000029A609A68C16A0A439A60C36A002BE4
:1014400000F023810026256815F4002511D0A24A5A
:10145000D2F88C3023F44013616B0B43C2F88C300C
:10146000636BB3F5801F00F01281002B00F0118137
:101470000025236813F4801F0FD0974AD2F88C30D0
:1014800023F44003A16B0B43C2F88C30A36BB3F57C
:10149000800F00F0008103B90125236813F0200FAD
:1014A00040F0FB80236813F0100F0CD08A4BD3F868
:1014B0008C2022F08072C3F88C20D3F88C20216B12
:1014C0000A43C3F88C20236813F4804F08D0824A63
:1014D000D2F8903023F44033E16D0B43C2F89030E2
:1014E000236813F4004F08D07B4AD2F8903023F4DD
:1014F0004023216E0B43C2F89030236813F4803FE1
:1015000008D0754AD2F8903023F44013616E0B4333
:10151000C2F89030236813F0400F08D06E4AD2F81A
:10152000903023F00303E16B0B43C2F89030236843
:1015300013F0800F08D0684AD2F8903023F00C03E3
:10154000216C0B43C2F89030236813F4807F08D0DD
:10155000614AD2F8903023F03003616C0B43C2F83B
:101560009030236813F4007F08D05B4AD2F89030A3
:1015700023F0C003A16C0B43C2F89030236813F42E
:10158000806F08D0544AD2F8903023F44073E16C55
:101590000B43C2F89030236813F4006F08D04E4A12
:1015A000D2F8903023F44063216D0B43C2F89030A1
:1015B000236813F4805F08D0474AD2F8903023F4B0
:1015C0004053616D0B43C2F89030236813F4005F01
:1015D00008D0414AD2F8903023F44043A16D0B4328
:1015E000C2F89030236813F4001F0DD03A4AD2F8A5
:1015F000903023F00063616F0B43C2F89030636F4B
:10160000B3F1006F00F0B480236813F4802F08D08A
:10161000314AD2F8903023F04073E16E0B43C2F8A8
:101620009030236813F4000F08D02B4AD2F8903082
:1016300023F08053A16F0B43C2F89030236813F05E
:10164000806F08D0244AD2F8903023F00053E16F25
:101650000B43C2F8903026B9236813F0007F00F0E6
:10166000E4801D4A136823F080631360FFF70AF9D2
:101670000646194B1B6813F0006F7BD0FFF702F989
:10168000801B6428F5D90320D2E00126DBE6012681
:10169000EBE60125EDE60126FDE60F4B1A6C42F064
:1016A00080521A641B6C03F080530193019B0B4A18
:1016B000136843F480731360FFF7E4F80746074BA1
:1016C0001B6813F4807F0BD1FFF7DCF8C01B642884
:1016D000F5D90320ACE000BF0038024000700040A4
:1016E000854B1B6F13F4407315D0A26A02F440724D
:1016F0009A4210D0804B1A6F22F44072196F41F455
:1017000080311967196F21F4803119671A671B6FCF
:1017100013F0010F12D1A36A03F44072B2F5407FB7
:101720001DD0754A936823F4F813936072490B6FC8
:10173000A26AC2F30B0213430B67B3E6FFF7A2F8EA
:1017400007466D4B1B6F13F0020FE4D1FFF79AF8B9
:10175000C01B41F288339842F3D9032068E0664801
:10176000826822F4F812654919400A438260DDE775
:10177000012549E7236813F0010F0ED0E36A63B92E
:101780005D4AD2F88430616803F0706343EA8113E4
:10179000A16843EA0173C2F88430236813F4002F70
:1017A00003D0626BB2F5801F06D013F4801F19D0EE
:1017B000A36BB3F5800F15D14F4AD2F8841060683F
:1017C000E3681B0643EA801301F0E0410B43C2F8D3
:1017D0008430D2F88C3023F01F03E16901390B43C8
:1017E000C2F88C30236813F0007F0AD06268E36887
:1017F0001B0643EA8213A26843EA02733E4AC2F818
:1018000084303D4A136843F080631360FFF73AF871
:101810000646394B1B6813F0006F06D1FFF732F80C
:10182000801B6428F5D9032002E0012D02D000209E
:1018300003B0F0BD304A136823F080531360FFF704
:1018400021F805462C4B1B6813F0005F06D0FFF70C
:1018500019F8401B6428F5D90320E9E7236813F43D
:10186000002F01D0626B22B113F4801F18D0A36B3C
:10187000B3B9214AD2F88830216903F4403343EAEE
:101880008113616943EA0163C2F88830D2F88C3071
:1018900023F4F853216A013943EA0123C2F88C305A
:1018A000236813F4001F03D0636FB3F1006F13D0EC
:1018B000114A136843F080531360FEF7E3FF0446B8
:1018C0000D4B1B6813F0005F14D1FEF7DBFF001B0C
:1018D0006428F5D90320ABE70749D1F888202069AF
:1018E000A3691B0443EA801302F070621343C1F83A
:1018F0008830DDE700209BE700380240FFFCFF0F47
:10190000026852E8003F23F4907342E80031002956
:10191000F6D1026802F1080353E8003F23F0010307
:10192000083242E800310029F3D1036E012B06D0C2
:101930002023C0F880300023036683667047026866
:1019400052E8003F23F0100342E800310029F6D1AD
:10195000EEE7000010B5044683680269134342694C
:101960001343C269134301680868914A02401A434D
:101970000A602268536823F44053E1680B435360C4
:10198000A269236A1A4321688B6823F430631343E6
:101990008B602368874A934218D0874A934228D0A5
:1019A000864A93424FD0864A93425ED0854A9342FC
:1019B0006DD0854A93427FD0844A934200F0918053
:1019C000834A934200F0A280102329E0814BD3F890
:1019D000903003F00303032B09D8DFE803F002047F
:1019E000AB0601231CE004231AE0082318E01023AF
:1019F00016E0784BD3F8903003F00C030C2B0ED884
:101A0000DFE803F0070D0D0D090D0D0D9A0D0D0DFD
:101A10000B00002304E0042302E0082300E010236D
:101A2000E069B0F5004F00F0B980082B00F21A8190
:101A3000DFE813F0F6000901F40018010C011801A9
:101A4000180118010F01634BD3F8903003F03003F5
:101A5000202B73D005D8002B72D0102B72D1042309
:101A6000DEE7302B70D10823DAE75A4BD3F89030F9
:101A700003F0C003802B69D005D8002B68D0402B21
:101A800068D10423CCE7C02B66D10823C8E7514BAB
:101A9000D3F8903003F44073B3F5007F5ED006D8DE
:101AA000002B5DD0B3F5807F5CD10423B8E7B3F59C
:101AB000407F59D10823B3E7464BD3F8903003F465
:101AC0004063B3F5006F51D006D8002B50D0B3F56A
:101AD000806F4FD10423A3E7B3F5406F4CD10823A7
:101AE0009EE73C4BD3F8903003F44053B3F5005FCE
:101AF00044D006D8002B43D0B3F5805F42D10423F5
:101B00008EE7B3F5405F3FD1082389E7314BD3F827
:101B1000903003F44043B3F5004F37D005D8BBB342
:101B2000B3F5804F36D104237AE7B3F5404F33D174
:101B3000082375E7022373E7022371E702236FE7A7
:101B400000236DE710236BE7102369E7022367E7A3
:101B5000002365E7102363E7102361E702235FE7B3
:101B600000235DE710235BE7102359E7022357E7C3
:101B7000012355E7102353E7102351E702234FE7D2
:101B800000234DE710234BE7102349E7022347E7E3
:101B9000002345E7102343E7102341E7082B5BD8D8
:101BA000DFE803F01A343A5A375A5A5A1E0000BF77
:101BB000F369FFEF0010014000440040004800407E
:101BC000004C0040005000400014014000780040EC
:101BD000007C004000380240FFF700FC00283DD0A8
:101BE0006268530803EB4003B3FBF2F3A3F1100167
:101BF0004FF6EF72914233D89AB222F00F02C3F33C
:101C0000420313432268D36000202CE0FFF7F6FB69
:101C1000E4E7FFF7D3FAE1E71748E1E7164802E007
:101C2000FFF7DCFB18B3636800EB5300B0FBF3F085
:101C3000A0F110024FF6EF739A421AD8236880B2CF
:101C4000D86000200FE0FFF7D9FBEBE7FFF7B6FA0B
:101C5000E8E74FF40040E6E7012004E0002002E05E
:101C6000012000E001200023A366E36610BD0020F0
:101C7000F9E70120F7E700BF0024F400436A13F0FE
:101C8000080F06D00268536823F40043416B0B43EE
:101C90005360436A13F0010F06D00268536823F4BF
:101CA0000033816A0B435360436A13F0020F06D07E
:101CB0000268536823F48033C16A0B435360436A5C
:101CC00013F0040F06D00268536823F48023016BDD
:101CD0000B435360436A13F0100F06D002689368F9
:101CE00023F48053816B0B439360436A13F0200FFE
:101CF00006D00268936823F40053C16B0B439360D2
:101D0000436A13F0400F0AD00268536823F480132B
:101D1000016C0B435360036CB3F5801F0BD0436A17
:101D200013F0800F06D00268536823F40023816CFF
:101D30000B43536070470268536823F4C003416C3F
:101D40000B435360EBE72DE9F84305460E46174673
:101D50009946DDF820802B68DC6936EA04040CBF64
:101D600001240024BC423AD1B8F1FF3FF3D0FEF782
:101D700089FDA0EB0900404534D8B8F1000F33D0FD
:101D80002B681A6812F0040FE5D0B6F1400218BFB4
:101D90000122802EDFD0002ADDD0DA6912F0080F90
:101DA00011D1DA6912F4006FD5D04FF400621A62D3
:101DB0002846FFF7A5FD2023C5F88430002385F8C9
:101DC000783003200CE008241C622846FFF798FDB9
:101DD000C5F88440002385F87830012000E0002019
:101DE000BDE8F8830320FBE70320F9E710B582B0D4
:101DF00004460023C0F88430FEF744FD23681B68C6
:101E000013F0080F0AD12023E367C4F880300020C4
:101E10002066606684F8780002B010BD6FF07E43E3
:101E20000093034600224FF400112046FFF78BFF7A
:101E30000028E8D0226852E8003F23F0800342E8FF
:101E400000310029F6D12023E367002384F878309D
:101E50000320E1E768B310B50446C36F03B324233E
:101E6000E3672268136823F001031360636AE3B930
:101E70002046FFF76FFD012811D02268536823F434
:101E8000904353602268936823F02A03936022688A
:101E9000136843F0010313602046FFF7A7FF10BD4E
:101EA00080F87830FEF79EFBD9E72046FFF7E6FE84
:101EB000DEE70120704700002DE9F047089D0F463E
:101EC00004468C46002B48D18A42164661D9B2FAA4
:101ED00082F34BB1C3F1200201FA03FC20FA02F2B3
:101EE0009E4042EA0C0C9C404FEA164EB7B2BCFB37
:101EF000FEF1220C0EFB11CC42EA0C4201FB07F072
:101F0000904209D9B21801F1FF3C80F0EE80904276
:101F100040F2EB8002393244121AA4B2B2FBFEF056
:101F20000EFB102244EA024400FB07F7A74209D93E
:101F3000341900F1FF3280F0DA80A74240F2D780F6
:101F40003444023840EA0140E41B00211DB1DC406A
:101F50000023C5E90043BDE8F0878B4206D90DB1E7
:101F6000C5E9000100210846BDE8F087B3FA83F116
:101F7000002948D1BB4202D3824200F20781841A71
:101F800067EB030201209446002DE4D0C5E9004C24
:101F9000E1E7002A00F09280B2FA82F3002B40F0D1
:101FA000A8808A1A4FEA164E1FFA86FC0121200CDF
:101FB000B2FBFEF70EFB172240EA02420CFB07F0D1
:101FC000904207D9B21807F1FF3802D2904200F2CE
:101FD000E2804746121AA4B2B2FBFEF00EFB1022BA
:101FE00044EA02440CFB00FCA44507D9341900F173
:101FF000FF3202D2A44500F2CB801046A4EB0C04C1
:1020000040EA0740A2E7C1F120068B4022FA06FC15
:102010004CEA030C07FA01F420FA06F3F7404FEA02
:102020001C49234300FA01F81FFA8CFEB7FBF9F0B4
:102030001C0C09FB107744EA074400FB0EF7A7428B
:1020400002FA01F20AD91CEB040400F1FF3A80F015
:102050009B80A74240F2988002386444E41B9FB200
:10206000B4FBF9F309FB134447EA044403FB0EFEF7
:10207000A64509D91CEB040403F1FF3780F08280E8
:10208000A6457FD9023B644443EA0040A4EB0E041A
:10209000A0FB02E7BC427346B94663D360D05DB192
:1020A000B8EB030264EB090404FA06F622FA01F322
:1020B0001E43CC40C5E9006400214CE76208480893
:1020C00042EAC1710B0C43EA00438AB242EA03427E
:1020D000B3FBF6F1E407B4463746B6461F23B0FB20
:1020E000F6F0D21B41EA004161E7614614E7104671
:1020F00028E7C3F1200120FA01F29E4027FA01F1FE
:102100009F403A434FEA164E1FFA86FCB1FBFEF79A
:102110000EFB1710110C41EA004107FB0CF8884533
:1021200004FA03F43AD9711807F1FF3001D2884557
:102130001FD8A1EB0801B1FBFEF808FB0CF70EFB62
:10214000181192B242EA0142BA422FD2B21808F1F3
:10215000FF31C6D2BA42C4D2A8F102013244C0E76C
:10216000F0459CD2BEEB020367EB0C070138B94681
:1021700095E7A6EB08084144B81EB1FBFEF808FB42
:102180000CF7DCE73B467FE7504667E70846FBE68F
:102190003444023832E7023F32441BE7A1EB080126
:1021A0003846B1FBFEF808FB0CF7C8E7414698E754
:1021B000830730B546D08418844604E003F8011B39
:1021C0009D0704D09C46A4456346F7D130BD013A33
:1021D0000244A2EB0C02032A29D9CCB204EB04245A
:1021E0000F2A04EB04442FD9A2F1100C2CF00F0C91
:1021F00003F11005AC44C3E90044C3E902441033C1
:102200006345F8D112F00C0F02F00F0E18D02EF02B
:10221000030C9C44AEF104051A4642F8044B624597
:10222000FBD125F0030404330EF003022344002AFB
:10223000CCD0C9B21A4403F8011B9342FBD130BD84
:102240007246F4E70346C6E79646E0E770B50F4BE3
:102250000F4DAB42A3EB050607D0B610002455F88E
:10226000043B01349847A642F9D800F07FF8094DA5
:10227000094B5E1BAB424FEAA60606D0002455F878
:10228000043B01349847A642F9D870BDB823000832
:10229000B8230008B8230008C0230008704700BF17
:1022A000704700BF024B13B1024800F005B87047F9
:1022B00000000000C5220008002301461A46184607
:1022C00000F014B838B5074D074C2C1BA41005D0EE
:1022D000013C55F8043D9847002CF9D1BDE8384041
:1022E00000F04AB8C4230008C02300082DE9F843D1
:1022F0001B4D0646286898460F469146FFF7CEFFCD
:10230000184B1C681CB3286865681F2D22DC4EB969
:102310006B1C0235636044F82570FFF7C1FF002095
:10232000BDE8F88304EB85010123C1F88890D4F857
:102330008821AB401A43022EC4F88821C1F80881D5
:10234000E6D1D4F88C211A43C4F88C21E0E7064C7E
:102350001C60D8E7FFF7A4FF4FF0FF30E0E700BFB5
:10236000100000201C01002020010020F8B500BF53
:10237000F8BC08BC9E467047F8B500BFF8BC08BC66
:042380009E467047BE
:10238400000000000102030400000000000000003F
:10239400010203040607080901000000E803F40130
:0C23A4006400320014000A000100000078
:0823B00008FBFF7F01000000A3
:0823B800A52200087D020008C7
:0423C00055020008BA
:1023C400640000000024F40001000000100000007C
:0423D40018010020CC
:04000005080007B533
:00000001FF
